:020000040800F2
:1000000060CE0120C1130008991100089B1100085F
:100010009F110008A3110008A711000800000000AC
:10002000000000000000000000000000AB1100080C
:10003000AD11000800000000AF110008B111000868
:10004000DB130008DB130008DB130008F99100083C
:10005000DB130008DB130008DB130008DB130008C8
:10006000DB130008DB130008DB130008DB130008B8
:10007000DB130008DB130008DB130008DB130008A8
:10008000DB130008DB130008DB130008DB13000898
:10009000DB130008DB130008DB130008DB13000888
:1000A000DB13000817930008DB1300088793000890
:1000B000DB130008B564000839C80008DB1300082A
:1000C000DB130008DB130008DB130008DB13000858
:1000D000DB130008BF150008499B0008E56600080F
:1000E000DB130008D5910008DB130008DB130008C0
:1000F000DB130008DB130008DB130008DB13000828
:10010000DB13000801C0000881650008DB1300084C
:10011000DB130008DB130008DB13000897660008F8
:10012000DB130008DB130008DB130008DB130008F7
:10013000DB13000863A20008DB130008DB130008D0
:10014000DB130008DB130008DB130008DB130008D7
:10015000DB130008DB130008DB130008DB130008C7
:10016000DB130008DB130008DB130008DB130008B7
:10017000DB130008DB130008DB130008DB130008A7
:10018000DB130008DB13000800F002F800F0B2F8FF
:100190000AA090E8000C82448344AAF10107DA45E2
:1001A00001D100F0A7F8AFF2090EBAE80F0013F082
:1001B000010F18BFFB1A43F001031847080A050096
:1001C000280A05000A444FF0000C10F8013B13F018
:1001D000070408BF10F8014B1D1108BF10F8015BA0
:1001E000641E05D010F8016B641E01F8016BF9D193
:1001F00013F0080F1EBF10F8014BAD1C0C1B09D1EA
:100200006D1E58BF01F801CBFAD505E014F8016B5B
:1002100001F8016B6D1EF9D59142D6D370470000ED
:100220000023002400250026103A28BF78C1FBD8FF
:10023000520728BF30C148BF0B6070476E2921F0BC
:100240001587702921F0D083662923F0438665291C
:1002500023F04086672923F03D866129AFF30080B3
:1002600003681B0A28BF41F08001692921F03E8301
:10027000642921F03B83752921F038836F2922F00E
:100280001180782921F09C83E92921F0A987E429AC
:1002900021F0A687F52921F0A387EF2922F00E800F
:1002A000F82921F09B830368DB0928BF41F0800116
:1002B000632921F01887732921F01D87E32922F093
:1002C0006A82F32922F06F82002070471FB523F065
:1002D000FCFD22F0C3FA04000020002122F0A8FF58
:1002E000401C60600020002122F08CFFE0601FBDF8
:1002F00010B510BD22F084FA1146FFF7E7FF00F0B9
:10030000B1FE22F061FB03B4FFF7F2FF03BC01F082
:10031000F7F8000030BF72B6704762B6704780F3DE
:1003200008887047704710B5E94890F8560030B11A
:10033000012808D002280AD0032810D10BE0E5A03C
:1003400021F060FA0BE0E9A021F05CFA07E0EDA0F3
:1003500021F058FA03E0F1A021F054FA00BF00BFE9
:10036000DB4890F82C10F3A021F04CFAD848B0F8F4
:100370005410F7A021F046FAD548D0E91220030323
:1003800043EA1251F6A021F03DFAD148016DFAA0DE
:1003900021F038FA10BD92B0002002F0B1F801F05F
:1003A00053F902F0E0F801F08FF94FF60740F849F1
:1003B0000880F8A018210B464FF4F072CDE9001028
:1003C00000216E2006F016F81F20F1490880F6A0E3
:1003D00010210B46C822CDE900100A2006F00AF8C9
:1003E000F24880880246F2A10490F34821F016FA00
:1003F000F14810210B46C822CDE900104FF4A5703A
:1004000005F0F8FF4FF4FC60E1490880EBA01021F3
:100410000B46C822CDE90010500005F0EBFF1F206D
:10042000DB490880E6A010210B46C822CDE9001068
:1004300020210A2005F0DEFF4FF47840D4490880DF
:1004400009E0E0A010210B46C822CDE900102021D0
:10045000500005F0CFFF08F099FD0028F1D14FF4CE
:10046000FC60CB490880D5A010210B46C822CDE9FD
:1004700000102021500005F0BDFF1F20C449088056
:10048000D1A010210B46C822CDE9001030210A204E
:1004900005F0B0FFCDA010210B46C822CDE9001019
:1004A00040210A2005F0A6FF4FF4FC60B8490880FF
:1004B000C2A010210B46C822CDE900103021500007
:1004C00005F098FFBDA010210B46C822CDE9001011
:1004D0004021500005F08EFF1F20AD490880BCA0D0
:1004E00010210B46C822CDE9001050210A2005F04A
:1004F00081FF4FF47840A649088009E0B1A010219F
:100500000B46C822CDE900105021500005F072FFC3
:10051000B1480068049080470028EFD14FF4FC6098
:100520009B490880A5A010210B46C822CDE90010E8
:100530005021500005F05EFF1F2095490880A7A0BC
:1005400010210B46C822CDE9001060210A2005F0D9
:1005500051FF08F075FD0021042008F005FE4FF45E
:10056000FC608B49088095A010210B46C822CDE97C
:1005700000106021500005F03DFF06F0B3FA1F2087
:100580008349088096A010210B46C822CDE90010AF
:1005900070210A2005F02EFF4FF4FC607C49088092
:1005A00086A010210B46C822CDE900107021500012
:1005B00005F020FF08F042FE1F207549088089A041
:1005C00010210B46C822CDE9001080210A2005F039
:1005D00011FF4FF4FC606E49088078A010210B4693
:1005E000C822CDE900108021500005F003FF012052
:1005F0007F4908700846007806231A4605210090B6
:10060000002008F089FF1F206149088079A010218F
:100610000B46C822CDE9001090210A2005F0EAFE21
:100620004FF4FC605A49088064A010210B46C82290
:10063000CDE900109021500005F0DCFE4FF61F00C0
:10064000534908806A48007801280AD16AA010211D
:100650000B46C822CDE900105021F02005F0CAFE5B
:1006600009E068A010210B46C822CDE900105021F6
:10067000F02005F0BFFE01F007F81F204449088074
:1006800062A010210B46C822CDE90010A0210A204B
:1006900005F0B0FE4FF4FC603D49088047A01021F2
:1006A0000B46C822CDE90010A021500005F0A2FEA3
:1006B00009F011F81F203649088056A010210B467A
:1006C000C822CDE90010B0210A2005F093FEC5E054
:1006D000881A00204361726420547970653A53444B
:1006E00053432056312E310D0A00000043617264DD
:1006F00020547970653A534453432056322E300DBE
:100700000A0000004361726420547970653A5344D2
:1007100048432056322E300D0A00000043617264B7
:1007200020547970653A4D4D4320436172640D0A3F
:100730000000000043617264204D616E7566616364
:10074000747572657249443A25640D0A0000000010
:1007500043617264205243413A25640D0A0000004F
:10076000436172642043617061636974793A2564FE
:10077000204D420D0A0000004361726420426C6FFC
:10078000636B53697A653A25640D0A0D0A0000000F
:100790002E00002057454C434F4D4520746F204D8F
:1007A00079204C69666500004C434400A80600208F
:1007B00049443A2025780000D40500204F4B000022
:1007C000524E47004E4F00004C4544004B455900E7
:1007D000544F554348000000440000205254430049
:1007E00041444300496E6672617265640000000016
:1007F0000800002043616E004C6F6F704261636BB4
:10080000000000004E6F726D616C00004245455063
:100810000000000053504920464C4153480000005E
:100820004FF47840FE490880FEA010210B46F022CC
:10083000CDE90010B021AA2005F0DCFDFA2000F07F
:100840003EFEFEA010210B46F022CDE90010B021A3
:10085000AA2005F0CFFDFA2000F031FE08F01AFFC3
:10086000A0F56F411739DBD14FF4FC60EC490880EB
:10087000F8A010210B46F022CDE90010B021AA20EB
:1008800005F0B8FDAFF2CC0010210B46C822CDE92F
:100890000010B021500005F0ADFD1F20E049088098
:1008A000F2A010210B46C822CDE90010C0210A2079
:1008B00005F0A0FD1DE04FF47840D9490880EDA077
:1008C00010210B46F022CDE90010C021AA2005F02E
:1008D00091FDFA2000F0F3FDEBA010210B46F02271
:1008E000CDE90010C021AA2005F084FDFA2000F017
:1008F000E6FD05F0B9FF0028DDD14FF4FC60C849E2
:100900000880D4A010210B46F022CDE90010C021B0
:10091000AA2005F06FFDAFF25C1010210B46C82233
:10092000CDE90010C021500005F064FD06F00BF881
:100930000F901F21BA4801800F9801280BD1D7A032
:1009400010210B46C822CDE90010C0214FF496704B
:1009500005F050FD1CE00F9858B9D2A010210B46AD
:10096000C822CDE90010C0214FF4967005F042FD79
:100970000EE04FF47840AA490880CCA010210B4625
:10098000C822CDE90010C0214FF4967005F032FD69
:100990004FF4165009F0F1F81F20A1490880C5A0B6
:1009A00010210B46C822CDE90010D0210A2005F005
:1009B00021FD4FF4FC609A490880AFF2002010211D
:1009C0000B46C822CDE90010D021500005F012FDE1
:1009D00009F092F91F2092490880B8A010210B4617
:1009E000C822CDE90010E0210A2005F003FD4FF4F4
:1009F000FC608B490880AFF23C2010210B46C822D6
:100A0000CDE90010E021500005F0F4FC00200CF0CE
:100A10009EFC01200CF09BFC02200CF098FC1F2097
:100A20007F490880A8A010210B46C822CDE90010FC
:100A3000F0210A2005F0DEFC4FF4FC6078490880C4
:100A4000AFF2882010210B46C822CDE90010F0211A
:100A5000500005F0CFFC1F20714908809EA0102196
:100A60000B46C822CDE9001009010A2005F0C2FC9E
:100A70001FE04FF478406A49088099A010210B4686
:100A8000F022CDE900100901AA2005F0B3FC4FF4D3
:100A9000FA7000F014FD7CA010210B46F022CDE985
:100AA00000100901AA2005F0A5FC4FF4FA7000F02F
:100AB00006FD0AF07DFA0028DBD14FF4FC605849AE
:100AC000088064A010210B46F022CDE90010090136
:100AD000AA2005F08FFCAFF21C3010210B46C82273
:100AE000CDE900100901500005F084FCFFF71BFC64
:100AF00012F0BAFD7F48006801227FA1049014F033
:100B000066FA7C48406801227CA1049014F05FFAE8
:100B10000E900E980D2831D179A010210B46C822D5
:100B2000CDE900104FF488710A2005F063FC4FF402
:100B30008052012171A015F0B8FB0E900E9870B98B
:100B400076A015F0C8FA78A010210B46C822CDE98E
:100B500000104FF488710A2005F04CFC0AE079A0DF
:100B600010210B46C822CDE900104FF488710A20ED
:100B700005F040FC4FF47A7000F0A1FC78A0102141
:100B80000B46C822CDE900104FF488710A2005F009
:100B900031FC23E079A010210B46C822CDE90010DA
:100BA0004FF488711E2005F025FCC82000F087FC5A
:100BB0004FF6FF704FF49073F0224FF4887100905D
:100BC0001E2005F07FF9C82000F079FC714800680C
:100BD00008B9012000E000206E49086010AA11A9A0
:100BE0006DA012F0DDFD0028D4D11F200C49088033
:100BF00008806AA010210B46C822CDE900104FF4EE
:100C000088710A2005F0F6FB4FF4FC600449088067
:100C1000AFF2584010210B46C822CDE90010C1E0C8
:100C20002E0000202057323551313238204368657C
:100C3000636B204661696C656400000020506C6540
:100C400061736520436865636B202E2E2E2E2E2E39
:100C50002E000000202020202020202020202020E6
:100C60002020202020202020200000004843303574
:100C700000000000204843303520436865636B2046
:100C80004661696C6564000020506C656173652085
:100C9000436865636B202E2E2E2E00004D41535469
:100CA00045520000534C41564500000030784646FE
:100CB00000000000525334383500000046534D43C5
:100CC000205352414D0000004D454D204D414E45B1
:100CD00047454D454E540000534420434152440083
:100CE0002053442043617264204572726F72212048
:100CF0002020000010C60120303A0000313A0000E8
:100D0000466C617368204469736B20466F726D6135
:100D10007474696E672E2E2E00000000313A414C2B
:100D200049454E54454B0000466C61736820446948
:100D3000736B20466F726D61742046696E697368CB
:100D400000000000466C617368204469736B2046A4
:100D50006F726D6174204572726F72200000000026
:100D60002020202020202020202020202020202083
:100D70002020202020202020000000005344204379
:100D8000617264204661746673204572726F7221CD
:100D900000000000A4824242300000004641544658
:100DA000530000004FF48871500005F023FB002031
:100DB000B5490880B5A010210B46C822CDE9001026
:100DC0004FF490710A2005F015FBB6A010210B46D8
:100DD000C822CDE900104FF498710A2005F00AFBF3
:100DE0004FF61F00A8490880102000901198800A33
:100DF000052302464FF4907104907A2005F042FAE0
:100E0000102000901098800A052302464FF4987134
:100E100004907A2005F036FA1F209B490880A7A08D
:100E200010210B46C822CDE900104FF4A0710A2012
:100E300005F0E0FA22E04FF4784093490880A1A041
:100E400010210B46F022CDE900104FF4A071AA202A
:100E500005F0D0FA4FF4FA7000F031FBAFF2D81081
:100E600010210B46F022CDE900104FF4A071AA200A
:100E700005F0C0FA4FF4FA7000F021FB12F04BFAC3
:100E80000028D8D14FF4FC607F4908800020102151
:100E900091A20B46CDE900210290F0224FF4A071FF
:100EA0004FF4967012F043FB40F2473140F2E730C6
:100EB00005F0D4FA1F20744908808CA010210B463D
:100EC000C822CDE900104FF4A8710A2005F092FA6B
:100ED00029E04FF478406C49088087A010210B4628
:100EE000C822CDE900104FF4A871104605F082FA2F
:100EF0004FF4966000F0E3FA4FF6FF704FF4B073D2
:100F00004FF4C8724FF4A8710090C82004F0DAFFC3
:100F10007EA010210B46C822CDE900104FF4A87125
:100F2000104605F067FA15F065FF0028D1D14FF69D
:100F3000FF704FF4B0734FF4C8724FF4A871009073
:100F4000C82004F0BFFF4FF4FC604F49088072A036
:100F500010210B46C822CDE900104FF4A8714FF4C0
:100F6000AF7005F047FA1F20474908806DA0102197
:100F70000B46C822CDE900104FF4B0710A2005F0ED
:100F800039FA01E016F045F86A48807D022803D05E
:100F90006848807DFF28F5D14FF4FC603A4908800D
:100FA0005DA010210B46C822CDE900104FF4B071AE
:100FB000881E05F01FFA5F48807D022812D15D4827
:100FC000407B5C49097BCDE900105A48C07A049007
:100FD0005848807A0390024657A105A8049B20F048
:100FE0001DFC11E05348407B5249097BCDE90010BC
:100FF0005048C07A04904F48807A0390024653A12B
:1010000005A8049B20F00AFC05A810210B46C82265
:10101000CDE900104FF4B8710A2005F0EBF909F0A2
:1010200017F90D900020184908800D9810F0020F54
:101030000BD04CA010210B46C822CDE900104FF474
:10104000B8710A2005F0D6F90AE04CA010210B4631
:10105000C822CDE900104FF4B8710A2005F0CAF992
:1010600000BFFEE74FF4A0600CF06EFA4FF4E130E1
:1010700000F053FAA82000F0C3F946484168542014
:101080008847FFF788F900002E00002053442054C1
:101090006F74616C2053697A653A20202020204DBE
:1010A0004200000053442020467265652053697A4F
:1010B000653A20202020204D42000000464F4E542B
:1010C00000000000464F4E54202020202045727220
:1010D0006F722120202000002020202020D7D6BFA2
:1010E000E2B3F5CABCBBAFB3C9B9A6006C7749502F
:1010F00020496E69740000006C77495020496E6980
:1011000074206661696C6564210000005265747228
:1011100079696E672E2E2E00537563636573736550
:10112000640000004448435020495020636F6E66BD
:10113000696700006CC60120444843502049503A7A
:1011400025642E25642E25642E2564005374617455
:1011500069632049503A25642E25642E25642E2586
:101160006400000045746865726E65742053706594
:1011700065643A3130304D202020000045746865A8
:10118000726E65742053706565643A31304D20206D
:101190002000000044010020704700BFFEE700BFB0
:1011A000FEE700BFFEE700BFFEE7704770477047ED
:1011B000704700000CB50020019000907548006851
:1011C00040F480307349086000BF7248006800F442
:1011D000003000900198401C0190009818B90198C7
:1011E000B0F5A04FF1D16B48006810F4003F02D079
:1011F0000120009001E0002000900098012845D1D6
:1012000064484030006840F08050624940310860D6
:101210006148006840F440405F4908605D4808301C
:1012200000685C49083108600846006840F40040E6
:1012300008600846006840F4A05008605748091F3D
:101240000860081F006840F08070091F086000BF38
:101250005048006810F0007FFAD040F20570504905
:1012600008604C480830006820F003004949083104
:1012700008600846006840F00200086000BF45486A
:101280000830006800F00C000828F8D10CBD10B53B
:101290004448006840F47000424908603D480068D6
:1012A00040F001003B49086000203A4908310860DD
:1012B000384800683C490840364908603B48091DE9
:1012C0000860081F006820F48020091F08600020C3
:1012D00030490C310860FFF76DFF4FF00060314975
:1012E0008039086010BD70B5002000220223002460
:1012F0000221284D08352D6805F00C0020B1042886
:1013000006D0082834D107E0294D2A4E356033E055
:10131000294D284E35602FE01E4D2D1D2D68C5F33B
:1013200080541C4D2D1D2D6805F03F0154B1224DF8
:10133000B5FBF1F5174E361D3668C6F3881605FB6A
:1013400006F209E01A4DB5FBF1F5124E361D36686E
:10135000C6F3881605FB06F20E4D2D1D2D68C5F34C
:1013600001456D1C6B00B2FBF3F5124E356003E0D6
:101370000F4D104E356000BF00BF064D08352D687B
:10138000C5F303150D4E705D0A4D2D68C540094E1D
:10139000356070BD003802400070004008544007BE
:1013A000003C024088ED00E0FFFFF6FE1030002414
:1013B0000024F4000C00002000127A00100000202D
:1013C0000948804709480047FEE7FEE7FEE7FEE7D9
:1013D000FEE7FEE7FEE7FEE7FEE7FEE70448054915
:1013E000054A064B704700008F120008890100086B
:1013F00060C8012060CE012060CA012060CA0120BF
:1014000010B504466FF004000CF0F1F8E11704EB9E
:101410005171C910384A11701046007800EB400134
:10142000C1EBC0104FF6FF7101EAC00033490880DC
:1014300010BD0146304A12784A434FF0E0235A610A
:1014400000229A611A46126942F001021A6100BF35
:101450004FF0E022106910F0010F02D010F4803F2D
:10146000F6D04FF0E022126922F001024FF0E023A3
:101470001A6100229A6170470146204A12884A4345
:101480004FF0E0235A6100229A611A46126942F035
:1014900001021A6100BF4FF0E022106910F0010F45
:1014A00002D010F4803FF6D04FF0E022126922F013
:1014B00001024FF0E0231A6100229A61704770B573
:1014C00004464FF4077094FBF0F0C6B24FF4077077
:1014D00094FBF0F100FB114085B205E04FF407707A
:1014E000FFF7CAFF701EC6B2002EF7D115B128460D
:1014F000FFF7C2FF70BD0000200000202200002086
:10150000014600BF704700BF4B4A128812F0400FDF
:10151000FAD0C2B2484B9A80704710B588B00446E2
:10152000012108460EF0D2F8012110200EF028F912
:101530000722092141480DF0FEFD07220A213F48FC
:101540000DF0F9FD4FF4C060069002208DF81C00EC
:101550008DF81D0000208DF81E0001208DF81F0061
:1015600006A936480DF05CFD02940020ADF80C0091
:10157000ADF80E00ADF81000ADF814000C20ADF879
:10158000120002A92C4810F02EFB01212A4810F06D
:10159000B2FB012240F22551274810F062FC2520C1
:1015A0008DF8040003208DF805008DF80600012059
:1015B0008DF8070001A80BF0CCFF08B010BD10B5E6
:1015C00040F225511C4810F087FC10B31A4810F067
:1015D000C1FBC4B21A48008810F4004F2BD1184840
:1015E000008810F4804F0CD00A2C03D0002014493E
:1015F000088020E01248008840F40040104908802C
:1016000019E00D2C06D10E48008840F480400C49AA
:10161000088010E00A480088C0F30D0009490C5406
:1016200007480088401C0649088008460088C728EB
:1016300001DD0020088010BD0010014000000240C4
:1016400024000020E00500201CB5012120200EF020
:101650003DF84FF4C060009001208DF80400002098
:101660008DF8060003208DF8050001208DF8070095
:10167000694604480DF0D4FC4FF4C06101480DF0F8
:101680004BFD1CBD001402401CB5012120200EF0B2
:101690001DF84FF48070009001208DF804000020A8
:1016A0008DF8060003208DF8050002208DF8070054
:1016B000694604480DF0B4FC4FF4807101480DF008
:1016C0002DFD1CBD001402401CB5012111200DF0A0
:1016D000FDFF1C20009000208DF8040003208DF8F1
:1016E000050001208DF80700694635480DF098FC8B
:1016F0000120009002208DF80700694631480DF066
:101700008FFC1CBD10B5044614B101202E49087091
:101710002D480078002837D0102129480DF0E2FC30
:1017200078B1082126480DF0DDFC50B10421244891
:101730000DF0D8FC28B1012122480DF0D3FC01287E
:1017400022D10A20FFF7BBFE00201F49087010219C
:101750001B480DF0C7FC08B9012010BD082118482E
:101760000DF0C0FC08B90220F7E7042114480DF081
:10177000B9FC08B90320F0E7012112480DF0B2FCD2
:1017800001281BD10420E8E710210D480DF0AAFC28
:10179000012813D108210A480DF0A4FC01280DD11D
:1017A000042107480DF09EFC012807D101210548BE
:1017B0000DF098FC10B90120034908700020CCE717
:1017C00000100240000002402C00002001B5BDF8CE
:1017D00000000090BDF80000F749088008BD01B581
:1017E000BDF800000090BDF80000F449088008BD75
:1017F00008B5F24800880090BDF8000008BDEE4A28
:1018000010804FF0D842A2F88010704710B50446FF
:101810002046FFF7DBFF0520FFF70BFEFFF7E8FF91
:1018200010BDE7480089E44908807047E349088013
:10183000704730B5014601F01F04C1F34513CA0AD1
:10184000E50205EB43151544A8B230BD00BF010009
:10185000A0F10102D0B2FAD1704730B504460D466E
:10186000D7488088A0F51341413905D0D4488088F5
:10187000A0F5A641103914D1D1494889FFF7A6FF38
:101880002012FFF7ACFFE0B2FFF7A9FFCC4988892F
:10189000FFF79CFF2812FFF7A2FFE8B2FFF79FFFB8
:1018A000ABE0C7488088A0F5D04104391DD1C448B9
:1018B0008079012804D1C2480088401E001B84B2F0
:1018C000BF494889FFF782FF2012FFF788FFE0B287
:1018D000FFF785FFBA498889FFF778FF2812FFF7DD
:1018E0007EFFE8B2FFF77BFF87E0B5488088A0F570
:1018F000C851633947D1B2488079A8B9B048008847
:10190000401E001B84B2AE494889FFF75FFF0020EC
:10191000FFF765FF0020FFF762FF2012FFF75FFF70
:10192000E0B2FFF75CFF16E0A5494889FFF74EFFDC
:101930002012FFF754FFE0B2FFF751FFA0490988DA
:10194000491EC1F30F20FFF74AFF9D490978491E40
:10195000C8B2FFF744FF9A498889FFF737FF28127A
:10196000FFF73DFFE8B2FFF73AFF95494988491E66
:10197000C1F30F20FFF733FF91498978491EC8B2A0
:10198000FFF72DFF39E08E488088A0F5AA41103975
:1019900020D18B494889FFF719FF2012FFF71FFF5D
:1019A00087494989491C88B2FFF710FFE0B2FFF769
:1019B00016FF83498889FFF709FF2812FFF70FFFF9
:1019C0007F498989491C88B2FFF700FFE8B2FFF719
:1019D00006FF12E07A488079012804D1784800880F
:1019E000401E001B84B2764948892146FFF707FF55
:1019F000734988892946FFF702FF30BD2DE9F04180
:101A000005460E4600240027A0466D480088A842DF
:101A100003DD6B484088B04202DC0020BDE8F08165
:101A200031462846FFF719FF65488088A0F5134125
:101A3000413911D062488088A0F5D04104390BD0DB
:101A40005F488088A0F5A641103905D05C488088A1
:101A5000A0F5C851633903D12E20FFF7B7FE0DE082
:101A600057488088A0F5AA41103904D14FF4385066
:101A7000FFF7ACFE02E02220FFF7A8FE5048808866
:101A8000A0F51341203902D10220FFF7DFFEFFF756
:101A9000AFFE04464A488088A0F5C851633901D199
:101AA0002046BBE70220FFF7D1FEFFF7A1FE044668
:101AB00043488088A0F5134141390BD040488088C5
:101AC000A0F5A641103905D03D488088A0F5AA416F
:101AD00010390AD10220FFF7B9FEFFF789FE8046D0
:101AE000E7B24FF6FF7000EA072735488088A0F577
:101AF0001341253917D032488088A0F58A413539FD
:101B000011D02F488088A0F58A4131390BD02C485C
:101B10008088A0F53541053905D029488088A0F591
:101B20004541053901D1204678E725488088A0F550
:101B3000134141390BD022488088A0F5A6411039C5
:101B400005D01F488088A0F5AA41103907D1E012BE
:101B5000C002B91240EA411040EAE8205EE72046A0
:101B6000FFF767FE5AE700B515488088A0F51341D6
:101B7000413911D012488088A0F5D04104390BD0EA
:101B80000F488088A0F5A641103905D00C48808800
:101B9000A0F5C851633903D12920FFF717FE16E0DD
:101BA00007488088A0F5AA4110390BD14FF4245082
:101BB000FFF70CFE0BE000007E00006C8000006C64
:101BC000A806002040F273110720FFF718FE00BDA1
:101BD00000B5FD488088A0F51341413911D0FA487D
:101BE0008088A0F5D04104390BD0F7488088A0F553
:101BF000A641103905D0F4488088A0F5C851633952
:101C000003D12820FFF7E2FD0EE0EF488088A0F521
:101C1000AA41103904D14FF42050FFF7D7FD03E05B
:101C200000210720FFF7EBFD00BDF0B505460024BD
:101C30000027E548807901280BD1E3488088A0F58A
:101C4000D041043905D0E0488088A0F5C8516339F7
:101C500008D1DD488079F0B9DB488088A0F5C8510B
:101C6000633918D1082D15D2DFE805F00406080AFB
:101C70000C0E101206250DE007250BE0042509E0E7
:101C8000052507E0012505E0002503E0032501E027
:101C9000022500BF00BFCC488088A0F51341413920
:101CA00017D0C9488088A0F5D041043911D0C64862
:101CB0008088A0F5A64110390BD0C3488088A0F5D4
:101CC000AA41103905D0C0488088A0F5C8516339B1
:101CD0007ED1082D1CD2DFE805F00406090C0F1296
:101CE000151800BF14E044F0800411E044F04004F3
:101CF0000EE044F0C0040BE044F0200408E044F09F
:101D0000600405E044F0A00402E044F0E00400BFF9
:101D100000BFAD488088A0F5AA41103902D14FF428
:101D2000585700E03627A8488088A0F5A64110390A
:101D30000DD0A5488088A0F5AA41103907D0A24847
:101D40008088A0F5C851633901D044F008049E484A
:101D50008088A0F5D041043901D144F00204214625
:101D60003846FFF74CFD98488088A0F5C851633984
:101D70001DD014F0200F0DD0934800889249498857
:101D8000884214DA9048068840888F4908800846BF
:101D900046800CE08C4800888B494988884206DDE3
:101DA00089480688408888490880084646808648D1
:101DB0008088A0F5AA41103954D183494889FFF79A
:101DC00005FD0020FFF70BFD7F494989491C00E014
:101DD00077E088B2FFF7FAFC0020FFF700FD7A49B0
:101DE0004989891C88B2FFF7F1FC77490988491EA7
:101DF000C1F30F20FFF7F3FC73494989C91C88B26E
:101E0000FFF7E4FC70490978491EC8B2FFF7E7FC08
:101E10006D498889FFF7DAFC0020FFF7E0FC6A498A
:101E20008989491C88B2FFF7D1FC0020FFF7D7FC55
:101E300065498989891C88B2FFF7C8FC62494988CD
:101E4000491EC1F30F20FFF7CAFC5F498989C91CED
:101E500088B2FFF7BBFC5C498978491EC8B2FFF71E
:101E6000BEFC55E058494889FFF7B0FC0020FFF759
:101E7000B6FC0020FFF7B3FC53490988491EC1F3A3
:101E80000F20FFF7ACFC50490978491EC8B2FFF794
:101E9000A6FC4D498889FFF799FC0020FFF79FFCBD
:101EA0000020FFF79CFC48494988491EC1F30F20D8
:101EB000FFF795FC44498978491EC8B2FFF78FFCAB
:101EC00026E0082D1CD2DFE805F004070A0D0F12EA
:101ED000151844F0300413E044F0100410E044F00E
:101EE00020040DE000BF0BE044F0380408E044F0AB
:101EF000280405E044F0180402E044F0080400BFA0
:101F000000BF032744F4805421463846FFF777FC8E
:101F1000F0BD30B504460D4629462046FFF79DFC2E
:101F2000FFF77FFC294800882949088030BD70B53B
:101F300004460D46164624488088A0F513414139D1
:101F400005D021488088A0F5A641103914D11E493A
:101F50004889FFF73BFC2012FFF741FCE0B2FFF796
:101F60003EFC19498889FFF731FC2812FFF737FC3E
:101F7000E8B2FFF734FC93E013488088A0F5AA414B
:101F8000103927D110494889FFF720FC2012FFF7AC
:101F900026FC0D494989491C88B2FFF717FCE0B2BD
:101FA000FFF71DFC08498889FFF710FC2812FFF78E
:101FB00016FC05498989491C88B2FFF707FCE8B27D
:101FC000FFF70DFC6CE00000A80600202E000020AA
:101FD0008000006CFE488088A0F5C851633928D184
:101FE000FB48807920B9FA480088401E001B84B263
:101FF000F7494889FFF7EAFB2012FFF7F0FBE0B250
:10200000FFF7EDFB2012FFF7EAFBE0B2FFF7E7FB7B
:10201000EF498889FFF7DAFB2812FFF7E0FBE8B207
:10202000FFF7DDFB2812FFF7DAFBE8B2FFF7D7FB7B
:1020300036E0E7488088A0F5D04104391DD1E44856
:102040008079012804D1E2480088401E001B84B238
:10205000DF494889FFF7BAFB2012FFF7C0FBE0B267
:10206000FFF7BDFBDA498889FFF7B0FB2812FFF7BD
:10207000B6FBE8B2FFF7B3FB12E0D5488079012840
:1020800004D1D3480088401E001B84B2D04948893F
:102090002146FFF7B4FBCE4988892946FFF7AFFBFD
:1020A000CB480089CB4908804FF0D840A0F8806029
:1020B00070BD70B52DED048B0446BE20FFF786FB86
:1020C0000520FFF78CFB204621F048FB41EC100B6C
:1020D000B0EE409AF0EE609A9FEDBF0B53EC102BE0
:1020E00051EC190B21F08AFB41EC100BB0EE408A49
:1020F000F0EE608A51EC180B21F0ECFA85B228461C
:10210000FFF76DFB0120FFF76AFBFF20FFF767FB7E
:102110000020FFF764FB0020FFF761FBBDEC048BA0
:1021200070BD10B50446002C66D1A9498871F02015
:1021300008804FF4A070488008468088A0F51341BD
:1021400041390BD0A2488088A0F5D041043905D090
:102150009F488088A0F5A64110391AD12C209C49AF
:1021600008812A2048812B20888108468088A0F594
:10217000D041043905D096488088A0F5A641103991
:1021800006D14FF4A070924908804FF4F070488057
:10219000A1E08F488088A0F5AA41103910D14FF4F2
:1021A00030508B4908814FF4285048814FF42C500F
:1021B00088814FF4F07008804FF4487048808AE0BE
:1021C00083488088A0F5C85163390DD12C208049FF
:1021D00008812B2048812A2088814FF4F0700880E4
:1021E0004FF44870488076E0222079490881202009
:1021F0004881212088816EE00120754988714FF463
:10220000A0700880F020488008468088A0F513411F
:10221000413905D06E488088A0F5A641103907D114
:102220002C206B4908812A2048812B2088813FE09F
:1022300067488088A0F5D041043907D12C20644933
:1022400008812B2048812A20888131E060488088DD
:10225000A0F5AA41103910D14FF430505C490881E3
:102260004FF4285048814FF42C5088814FF4487027
:1022700008804FF4F07048801AE055488088A0F537
:10228000C85163390DD12C20514908812A20488139
:102290002B2088814FF4487008804FF4F0704880FC
:1022A00006E022204A490881212048812020888197
:1022B00047488088A0F5D041043905D0444880883B
:1022C000A0F5A641103906D14FF4F07040490880BE
:1022D0004FF4A07048800020FFF7A7FC10BD2DE947
:1022E000F04F86B004460D469046994604EB080030
:1022F000401E86B205EB0900401E87B23448808834
:10230000A0F51341413915D031488088A0F5A64188
:1023100010390FD02E488088A0F5D041043909D05B
:102320002B488079012826D129488088A0F5C851FA
:10233000633920D126494889FFF748FA2012FFF770
:102340004EFAE0B2FFF74BFA3012FFF748FAF0B25C
:10235000FFF745FA1E498889FFF738FA2812FFF778
:102360003EFAE8B2FFF73BFA3812FFF738FAF8B254
:10237000FFF735FAC1E016488088A0F5C8516339E7
:102380003DD113480088A0EB0800001B84B205EB88
:102390000900401E1FFA80F90D494889FFF716FA17
:1023A0002012FFF71CFAE0B2FFF719FA04EB08015C
:1023B000491EC1F30F20FFF712FA04EB0801491E72
:1023C000C8B2FFF70CFA02498889FFF7FFF907E066
:1023D000A80600207E00006C66666666666604409D
:1023E0002812FFF7FCF9E8B2FFF7F9F94FEA2920C4
:1023F000FFF7F5F909F0FF00FFF7F1F97DE0FE487E
:102400008088A0F5AA41103944D1FB494889FFF7DB
:10241000DDF92012FFF7E3F9F7494989491C88B231
:10242000FFF7D4F9E0B2FFF7DAF9F3494989891CDB
:1024300088B2FFF7CBF93012FFF7D1F9EE4949899D
:10244000C91C88B2FFF7C2F9F0B2FFF7C8F9EA4930
:102450008889FFF7BBF92812FFF7C1F9E649898996
:10246000491C88B2FFF7B2F9E8B2FFF7B8F9E249C0
:102470008989891C88B2FFF7A9F93812FFF7AFF9EB
:10248000DD498989C91C88B2FFF7A0F9F8B2FFF7C6
:10249000A6F932E0D848807901280ED1AA46BB4679
:1024A000D5480088801B401E80B20190D248008829
:1024B000001B401E80B2009003E0A246B346019587
:1024C00000975020059051200490522003905320F3
:1024D000029051460598FFF792F959460498FFF784
:1024E0008EF901990398FFF78AF900990298FFF78E
:1024F00086F929462046FFF7B0F906B0BDE8F08F0F
:1025000070B504460026BC48058840884543BA4853
:102510008088A0F5D041043916D1B74880790128C8
:1025200012D10020B44988712A2048812B2088814B
:1025300000210846FFF791F90120AF4988712B204F
:1025400048812A20888103E000210846FFF785F9A9
:10255000FFF767F9002603E0A848048006F10106AA
:10256000AE42F9D370BD00B5A1B00020209001218A
:102570007A200DF0ABF8012108460DF0DFF84FF49A
:1025800000401E9001208DF87C0000208DF87E0018
:1025900002208DF87D0001208DF87F001EA998484B
:1025A0000CF03EFD4CF233701E9002208DF87C0042
:1025B00000208DF87E0003208DF87D0001208DF82D
:1025C0007F001EA98F480CF02BFD4FF680701E90E7
:1025D00002208DF87C0000208DF87E0003208DF80D
:1025E0007D0001208DF87F001EA987480CF018FDA2
:1025F0004FF480501E9002208DF87C0000208DF852
:102600007E0003208DF87D0001208DF87F001EA93B
:102610007E480CF005FD4FF480501E9002208DF88E
:102620007C0000208DF87E0003208DF87D000120C5
:102630008DF87F001EA976480CF0F2FC0C220021D8
:1026400070480CF078FD0C2201216E480CF073FDEF
:102650000C2204216B480CF06EFD0C220521694808
:102660000CF069FD0C22082166480CF064FD0C2278
:10267000092164480CF05FFD0C220A2161480CF02E
:102680005AFD0C220E215F480CF055FD0C220F2143
:102690005C480CF050FD0C2207215B480CF04BFD10
:1026A0000C22082158480CF046FD0C2209215648FE
:1026B0000CF041FD0C220A2153480CF03CFD0C2289
:1026C0000B2151480CF037FD0C2211464E480CF0FE
:1026D00032FD0C220D214C480CF02DFD0C220E2158
:1026E00049480CF028FD0C220F2147480CF023FD2F
:1026F0000C22114645480CF01EFD0C2211464448A0
:102700000CF019FD0F200890002009903C200A9041
:1027100000200B900C900D900E900920019000204D
:1027200002900820039000200490059006900790E6
:1027300006200F9000201090119010201290002081
:10274000139015901490169017904FF48050189095
:10275000002019904FF480401A9000201B9008A888
:102760001C9001A81D900FA80CF002F90121062071
:102770000CF086F93220FEF7A2FE01210020FFF7BF
:102780003EF83220FEF79BFE0020FFF73FF81A4983
:10279000888008468088FF280ADB08468088A0F5E4
:1027A0007F41FF3904D014488088B0F5134F7DD1A4
:1027B000D320FFF70BF8FFF71BF80F498880FFF7CE
:1027C00017F80D498880FFF713F80B4988800846F1
:1027D00080884FF6FF7101EA002007498880FFF7E3
:1027E00007F8054989880843034988800846808896
:1027F000A0F5134141390DE0A80600208000006CCF
:1028000000040240000C024000100240001402408C
:10281000001802404AD0BF20FEF7D8FFFEF7E8FFBD
:10282000FE498880FEF7E4FFFC498880FEF7E0FF60
:10283000FA498880FEF7DCFFF849888008468088DE
:102840004FF6FF7101EA0020F4498880FEF7D0FFBF
:10285000F24989880843F149888008468088A0F5B4
:10286000D04104397AD0D420FEF7B0FFFEF7C0FF84
:10287000EA498880FEF7BCFFE8498880FEF7B8FF88
:10288000E6498880084680884FF6FF7101EA0020FB
:10289000E2498880FEF7ACFFE04989880843DF49B8
:1028A000888008468088A0F5A64100E056E01039EF
:1028B00054D04FF45A40FEF789FFFEF799FFD749ED
:1028C00088804FF45B40FEF781FFFEF791FFD3490C
:1028D0008880084680884FF6FF7101EA0020CF49C2
:1028E00088804FF45C40FEF771FFFEF781FFCB4913
:1028F00089880843C949888008468088B0F5004F18
:1029000002D145F210508880C4488088A0F5AA41C1
:10291000103923D0A120FEF759FFFEF769FFBF4908
:102920008880FEF765FFBD498880084680884FF69D
:10293000FF7101EA0020B9498880FEF759FFB749C5
:1029400089880843B549888008468088A0F5AE414B
:10295000613903D141F66310B0498880AF4880885F
:10296000A0F51341413911D0AC488088A0F5A641AB
:1029700010390BD0A9488088A0F5AA41103905D09C
:10298000A6488088A0F5C85163391DD1A4480068C5
:1029900020F00F004FF02041C1F81C010846D0F88C
:1029A0001C0120F47060C1F81C010846D0F81C011D
:1029B00040F00300C1F81C010846D0F81C0140F4A7
:1029C0000070C1F81C0128E094488088A0F5D0412F
:1029D000043905D091488088A0F5454105391CD1BE
:1029E0008F48006820F00F004FF02041C1F81C0113
:1029F0000846D0F81C0120F47060C1F81C0108469C
:102A0000D0F81C0140F00A00C1F81C010846D0F8BB
:102A10001C0140F44060C1F81C018048818881A0FD
:102A20001EF0F0FE7D488088A0F5134141397CD12D
:102A3000CF20FEF7CBFE0020FEF7D1FEC120FEF72F
:102A4000CEFE3020FEF7CBFEED20FEF7BFFE642069
:102A5000FEF7C5FE0320FEF7C2FE1220FEF7BFFE02
:102A60008120FEF7BCFEE820FEF7B0FE8520FEF7D1
:102A7000B6FE1020FEF7B3FE7A20FEF7B0FECB20A4
:102A8000FEF7A4FE3920FEF7AAFE2C20FEF7A7FED3
:102A90000020FEF7A4FE3420FEF7A1FE0220FEF780
:102AA0009EFEF720FEF792FE2020FEF798FEEA2019
:102AB000FEF78CFE0020FEF792FE0020FEF78FFE50
:102AC000C020FEF783FE1B20FEF789FEC120FEF723
:102AD0007DFE0120FEF783FEC520FEF777FE302045
:102AE000FEF77DFE3020FEF77AFEC720FEF76EFE71
:102AF000B720FEF774FE3620FEF768FE4820FEF78A
:102B00006EFE3A20FEF762FE5520FEF768FEB12009
:102B1000FEF75CFE0020FEF762FE1A20FEF75FFE65
:102B2000B620FEF753FE0A2000E0A6E0FEF757FEAF
:102B3000A220FEF754FEF220FEF748FE0020FEF72A
:102B40004EFE2620FEF742FE0120FEF748FEE02062
:102B5000FEF73CFE0F20FEF742FE2A20FEF73FFE66
:102B60002820FEF73CFE0820FEF739FE0E20FEF777
:102B700036FE0820FEF733FE5420FEF730FEA92073
:102B8000FEF72DFE4320FEF72AFE0A20FEF727FE61
:102B90000F20FEF724FE0020FEF721FE0020FEF7A6
:102BA0001EFE0020FEF71BFE0020FEF718FEE120AF
:102BB000FEF70CFE0020FEF712FE1520FEF70FFEBA
:102BC0001720FEF70CFE0720FEF709FE1120FEF786
:102BD00006FE0620FEF703FE2B20FEF700FE562021
:102BE000FEF7FDFD3C20FEF7FAFD0520FEF7F7FDA0
:102BF0001020FEF7F4FD0F20FEF7F1FD3F20FEF759
:102C0000EEFD3F20FEF7EBFD0F20FEF7E8FD2B2049
:102C1000FEF7DCFD0020FEF7E2FD0BE0A806002039
:102C20001C0100A0204C43442049443A25780D0A59
:102C3000000000000020FEF7D2FD0120FEF7CFFDCE
:102C40003F20FEF7CCFD2A20FEF7C0FD0020FEF756
:102C5000C6FD0020FEF7C3FD0020FEF7C0FDEF20FB
:102C6000FEF7BDFD1120FEF7B1FD7820FEF727FC31
:102C70002920FEF7ABFD03F019B9FE488088A0F5C6
:102C8000D04104397ED11120FEF7A0FD1420FEF7BB
:102C900016FCD020FEF79AFD0720FEF7A0FD42208B
:102CA000FEF79DFD1D20FEF79AFDD120FEF78EFD5B
:102CB0000020FEF794FD1A20FEF791FD0920FEF793
:102CC0008EFDD220FEF782FD0120FEF788FD222036
:102CD000FEF785FDC020FEF779FD1020FEF77FFD91
:102CE0003B20FEF77CFD0020FEF779FD0220FEF779
:102CF00076FD1120FEF773FDC520FEF767FD03206A
:102D0000FEF76DFDC820FEF761FD0020FEF767FDB0
:102D10002520FEF764FD2120FEF761FD0520FEF76A
:102D20005EFD0020FEF75BFD0A20FEF758FD6520E2
:102D3000FEF755FD2520FEF752FD7720FEF74FFDEB
:102D40005020FEF74CFD0F20FEF749FD0020FEF756
:102D500046FDF820FEF73AFD0120FEF740FDFE207B
:102D6000FEF734FD0020FEF73AFD0220FEF737FDA6
:102D70002020FEF72BFD3620FEF728FD0820FEF769
:102D80002EFD00E02AE03A20FEF720FD5520FEF758
:102D900026FD2B20FEF71AFD0020FEF720FD002067
:102DA000FEF71DFD0120FEF71AFD3F20FEF717FD7F
:102DB0002A20FEF70BFD0020FEF711FD0020FEF794
:102DC0000EFD0120FEF70BFDDF20FEF708FD782049
:102DD000FEF775FB2920FEF7F9FC4CE7A548808833
:102DE000A0F5A641103940F07C87ED20FEF7EEFCFF
:102DF0000120FEF7F4FCFE20FEF7F1FCEE20FEF7CA
:102E0000E5FCDE20FEF7EBFC2120FEF7E8FCF120DC
:102E1000FEF7DCFC0120FEF7E2FCDF20FEF7D6FC2B
:102E20001020FEF7DCFCC420FEF7D0FC8F20FEF75C
:102E3000D6FCC620FEF7CAFC0020FEF7D0FCE2203C
:102E4000FEF7CDFCE220FEF7CAFCE220FEF7C7FC4D
:102E5000BF20FEF7BBFCAA20FEF7C1FCB020FEF7A6
:102E6000B5FC0D20FEF7BBFC0020FEF7B8FC0D20E2
:102E7000FEF7B5FC0020FEF7B2FC1120FEF7AFFC18
:102E80000020FEF7ACFC1920FEF7A9FC0020FEF79D
:102E9000A6FC2120FEF7A3FC0020FEF7A0FC2D20BD
:102EA000FEF79DFC0020FEF79AFC3D20FEF797FC04
:102EB0000020FEF794FC5D20FEF791FC0020FEF759
:102EC0008EFC5D20FEF78BFC0020FEF788FCB12015
:102ED000FEF77CFC8020FEF782FC0020FEF77FFCE2
:102EE0008B20FEF77CFC0020FEF779FC9620FEF795
:102EF00076FC0020FEF773FCB220FEF767FC002092
:102F0000FEF76DFC0020FEF76AFC0220FEF767FC6E
:102F10000020FEF764FC0320FEF761FC0020FEF7B2
:102F20005EFCB320FEF752FC0020FEF758FC0020A8
:102F3000FEF755FC0020FEF752FC0020FEF74FFC88
:102F40000020FEF74CFC0020FEF749FC0020FEF7B5
:102F500046FC0020FEF743FC0020FEF740FC00206A
:102F6000FEF73DFC0020FEF73AFC0020FEF737FCA0
:102F70000020FEF734FC0020FEF731FC0020FEF7B5
:102F80002EFC0020FEF72BFC0020FEF728FC002082
:102F9000FEF725FC0020FEF722FC0020FEF71FFCB8
:102FA0000020FEF71CFC0020FEF719FC0020FEF7B5
:102FB00016FC0020FEF713FCB420FEF707FC8B2064
:102FC000FEF70DFC0020FEF70AFC9620FEF707FC3A
:102FD0000020FEF704FCA120FEF701FC0020FEF714
:102FE000FEFBB520FEF7F2FB0220FEF7F8FB002007
:102FF000FEF7F5FB0320FEF7F2FB0020FEF7EFFBE8
:103000000420FEF7ECFB0020FEF7E9FBB620FEF7FC
:10301000DDFB0020FEF7E3FB0020FEF7E0FBB7201E
:10302000FEF7D4FB0020FEF7DAFB0020FEF7D7FB0B
:103030003F20FEF7D4FB0020FEF7D1FB5E20FEF719
:10304000CEFB0020FEF7CBFB6420FEF7C8FB002080
:10305000FEF7C5FB8C20FEF7C2FB0020FEF7BFFB8E
:10306000AC20FEF7BCFB0020FEF7B9FBDC20FEF72E
:10307000B6FB01E0A80600200020FEF7B0FB7020A0
:10308000FEF7ADFB0020FEF7AAFB9020FEF7A7FBA2
:103090000020FEF7A4FBEB20FEF7A1FB0020FEF7CB
:1030A0009EFBDC20FEF79BFB0020FEF798FBB82080
:1030B000FEF78CFB0020FEF792FB0020FEF78FFB53
:1030C0000020FEF78CFB0020FEF789FB0020FEF7B6
:1030D00086FB0020FEF783FB0020FEF780FB00202C
:1030E000FEF77DFBBA20FEF771FB2420FEF777FB8D
:1030F0000020FEF774FB0020FEF771FB0020FEF7B6
:103100006EFBC120FEF762FB2020FEF768FB00206B
:10311000FEF765FB5420FEF762FB0020FEF75FFB25
:10312000FF20FEF75CFB0020FEF759FBC220FEF7F4
:103130004DFB0A20FEF753FB0020FEF750FB042056
:10314000FEF74DFB0020FEF74AFBC320FEF73EFBD7
:103150003C20FEF744FB0020FEF741FB3A20FEF73F
:103160003EFB0020FEF73BFB3920FEF738FB00203A
:10317000FEF735FB3720FEF732FB0020FEF72FFB72
:103180003C20FEF72CFB0020FEF729FB3620FEF743
:1031900026FB0020FEF723FB3220FEF720FB002059
:1031A000FEF71DFB2F20FEF71AFB0020FEF717FB92
:1031B0002C20FEF714FB0020FEF711FB2920FEF760
:1031C0000EFB0020FEF70BFB2620FEF708FB00207D
:1031D000FEF705FB2420FEF702FB0020FEF7FFFAB6
:1031E0002420FEF7FCFA0020FEF7F9FA2320FEF770
:1031F000F6FA0020FEF7F3FA3C20FEF7F0FA002082
:10320000FEF7EDFA3620FEF7EAFA0020FEF7E7FABD
:103210003220FEF7E4FA0020FEF7E1FA2F20FEF755
:10322000DEFA0020FEF7DBFA2C20FEF7D8FA0020A9
:10323000FEF7D5FA2920FEF7D2FA0020FEF7CFFAE2
:103240002620FEF7CCFA0020FEF7C9FA2420FEF76C
:10325000C6FA0020FEF7C3FA2420FEF7C0FA0020C9
:10326000FEF7BDFA2320FEF7BAFA0020FEF7B7FA00
:10327000C420FEF7ABFA6220FEF7B1FA0020FEF799
:10328000AEFA0520FEF7ABFA0020FEF7A8FA84207C
:10329000FEF7A5FA0020FEF7A2FAF020FEF79FFA4B
:1032A0000020FEF79CFA1820FEF799FA0020FEF79E
:1032B00096FAA420FEF793FA0020FEF790FA182061
:1032C000FEF78DFA0020FEF78AFA5020FEF787FA03
:1032D0000020FEF784FA0C20FEF781FA0020FEF7AA
:1032E0007EFA1720FEF77BFA0020FEF778FA952089
:1032F000FEF775FA0020FEF772FAF320FEF76FFA78
:103300000020FEF76CFAE620FEF769FA0020FEF7CF
:1033100066FAC520FEF75AFA3220FEF760FA00205E
:10332000FEF75DFA4420FEF75AFA0020FEF757FA3E
:103330006520FEF754FA0020FEF751FA7620FEF7DA
:103340004EFA0020FEF74BFA8820FEF748FA0020DC
:10335000FEF745FAC620FEF739FA2020FEF73FFABD
:103360000020FEF73CFA1720FEF739FA0020FEF79E
:1033700036FA0120FEF733FA0020FEF730FAC720B4
:10338000FEF724FA0020FEF72AFA0020FEF727FABB
:103390000020FEF724FA0020FEF721FAC820FEF7ED
:1033A00015FA0020FEF71BFA0020FEF718FA00209D
:1033B000FEF715FA0020FEF712FAC920FEF706FA0A
:1033C0000020FEF70CFA0020FEF709FA0020FEF7B5
:1033D00006FA0020FEF703FA0020FEF700FA0020AC
:1033E000FEF7FDF90020FEF7FAF90020FEF7F7F9E5
:1033F0000020FEF7F4F90020FEF7F1F90020FEF7B7
:10340000EEF90020FEF7EBF90020FEF7E8F90020C6
:10341000FEF7E5F90020FEF7E2F90020FEF7DFF9FC
:10342000E020FEF7D3F91620FEF7D9F90020FEF7C9
:10343000D6F91C20FEF7D3F90020FEF7D0F92120A1
:10344000FEF7CDF90020FEF7CAF93620FEF7C7F9DE
:103450000020FEF7C4F94620FEF7C1F90020FEF770
:10346000BEF95220FEF7BBF90020FEF7B8F9642040
:10347000FEF7B5F90020FEF7B2F97A20FEF7AFF9B2
:103480000020FEF7ACF98B20FEF7A9F90020FEF72B
:10349000A6F99920FEF7A3F90020FEF7A0F9A820CD
:1034A000FEF79DF90020FEF79AF9B920FEF797F98B
:1034B0000020FEF794F9C420FEF791F90020FEF7F2
:1034C0008EF9CA20FEF78BF90020FEF788F9D2208A
:1034D000FEF785F90020FEF782F9D920FEF77FF983
:1034E0000020FEF77CF9E020FEF779F90020FEF7D6
:1034F00076F9F320FEF773F90020FEF770F9E1206A
:10350000FEF764F91620FEF76AF90020FEF767F966
:103510001C20FEF764F90020FEF761F92220FEF777
:103520005EF90020FEF75BF93620FEF758F900201F
:10353000FEF755F94520FEF752F90020FEF74FF946
:103540005220FEF74CF90020FEF749F96420FEF7FF
:1035500046F90020FEF743F97A20FEF740F90020F3
:10356000FEF73DF98B20FEF73AF90020FEF737F918
:103570009920FEF734F90020FEF731F9A820FEF774
:103580002EF90020FEF72BF9B920FEF728F90020CC
:10359000FEF725F9C420FEF722F90020FEF71FF9F7
:1035A000CA20FEF71CF90020FEF719F9D220FEF719
:1035B00016F90020FEF713F9D820FEF710F90020C5
:1035C000FEF70DF9E020FEF70AF90020FEF707F9F3
:1035D000F320FEF704F90020FEF701F9E220FEF7E0
:1035E000F5F80520FEF7FBF80020FEF7F8F80B20B1
:1035F000FEF7F5F80020FEF7F2F81B20FEF7EFF8D3
:103600000020FEF7ECF83420FEF7E9F80020FEF782
:10361000E6F84420FEF7E3F80020FEF7E0F84F203C
:10362000FEF7DDF80020FEF7DAF86120FEF7D7F8A4
:103630000020FEF7D4F87920FEF7D1F80020FEF73D
:10364000CEF88820FEF7CBF80020FEF7C8F89720C8
:10365000FEF7C5F80020FEF7C2F8A620FEF7BFF877
:103660000020FEF7BCF8B720FEF7B9F80020FEF7FF
:10367000B6F8C220FEF7B3F80020FEF7B0F8C72076
:10368000FEF7ADF80020FEF7AAF8D120FEF7A7F864
:103690000020FEF7A4F8D620FEF7A1F80020FEF7E0
:1036A0009EF8DD20FEF79BF80020FEF798F8F32047
:1036B000FEF795F80020FEF792F8E320FEF786F873
:1036C0000520FEF78CF80020FEF789F80A20FEF7A7
:1036D00086F80020FEF783F81C20FEF780F8002013
:1036E000FEF77DF83320FEF77AF80020FEF777F832
:1036F0004420FEF774F80020FEF771F85020FEF722
:103700006EF80020FEF76BF86220FEF768F80020E4
:10371000FEF765F87820FEF762F80020FEF75FF804
:103720008820FEF75CF80020FEF759F89720FEF796
:1037300056F80020FEF753F8A620FEF750F80020B8
:10374000FEF74DF8B720FEF74AF80020FEF747F8DD
:10375000C220FEF744F80020FEF741F8C720FEF72C
:103760003EF80020FEF73BF8D120FEF738F80020A5
:10377000FEF735F8D520FEF732F80020FEF72FF8D7
:10378000DD20FEF72CF80020FEF729F8F320FEF7E5
:1037900026F80020FEF723F8E420FEF717F80120B2
:1037A000FEF71DF80020FEF71AF80120FEF717F8C3
:1037B0000020FEF714F80220FEF711F80020FEF7B3
:1037C0000EF82A20FEF70BF80020FEF708F83C2040
:1037D000FEF705F80020FEF702F84B20FDF7FFFF8B
:1037E0000020FDF7FCFF5D20FDF7F9FF0020FDF74D
:1037F000F6FF7420FDF7F3FF0020FDF7F0FF8420B3
:10380000FDF7EDFF0020FDF7EAFF9320FDF7E7FF4E
:103810000020FDF7E4FFA220FDF7E1FF0020FDF707
:10382000DEFFB320FDF7DBFF0020FDF7D8FFBE2051
:10383000FDF7D5FF0020FDF7D2FFC420FDF7CFFF35
:103840000020FDF7CCFFCD20FDF7C9FF0020FDF7DC
:10385000C6FFD320FDF7C3FF0020FDF7C0FFDD202A
:10386000FDF7BDFF0020FDF7BAFFF320FDF7B7FF1E
:103870000020FDF7B4FFE520FDF7A8FF0020FDF7CD
:10388000AEFF0020FDF7ABFF0020FDF7A8FF0020F2
:10389000FDF7A5FF0220FDF7A2FF0020FDF79FFF27
:1038A0002920FDF79CFF0020FDF799FF3C20FDF744
:1038B00096FF0020FDF793FF4B20FDF790FF0020BF
:1038C000FDF78DFF5D20FDF78AFF0020FDF787FFE4
:1038D0007420FDF784FF0020FDF781FF8420FDF7B1
:1038E0007EFF0020FDF77BFF9320FDF778FF00208F
:1038F000FDF775FFA220FDF772FF0020FDF76FFFB7
:10390000B320FDF76CFF0020FDF769FFBE20FDF737
:1039100066FF0020FDF763FFC420FDF760FF002075
:10392000FDF75DFFCD20FDF75AFF0020FDF757FFA3
:10393000D320FDF754FF0020FDF751FFDC20FDF7F9
:103940004EFF0020FDF74BFFF320FDF748FF00205E
:10395000FDF745FFE620FDF739FF1120FDF73FFF9A
:103960000020FDF73CFF3420FDF739FF0020FDF774
:1039700036FF5620FDF733FF0020FDF730FF76209D
:10398000FDF72DFF0020FDF72AFF7720FDF727FF29
:103990000020FDF724FF6620FDF721FF0020FDF742
:1039A0001EFF8820FDF71BFF0020FDF718FF992060
:1039B000FDF715FF0020FDF712FFBB20FDF70FFFFD
:1039C0000020FDF70CFF9920FDF709FF0020FDF70F
:1039D00006FF6620FDF703FF0020FDF700FF5520DE
:1039E000FDF7FDFE0020FDF7FAFE5520FDF7F7FE7E
:1039F0000020FDF7F4FE4520FDF7F1FE0020FDF765
:103A0000EEFE4320FDF7EBFE0020FDF7E8FE44202C
:103A1000FDF7E5FE0020FDF7E2FEE720FDF7D6FE0C
:103A20003220FDF7DCFE0020FDF7D9FE5520FDF722
:103A3000D6FE0020FDF7D3FE7620FDF7D0FE002055
:103A4000FDF7CDFE6620FDF7CAFE0020FDF7C7FE9C
:103A50006720FDF7C4FE0020FDF7C1FE6720FDF7DB
:103A6000BEFE0020FDF7BBFE8720FDF7B8FE00205C
:103A7000FDF7B5FE9920FDF7B2FE0020FDF7AFFE81
:103A8000BB20FDF7ACFE0020FDF7A9FE9920FDF755
:103A9000A6FE0020FDF7A3FE7720FDF7A0FE002084
:103AA000FDF79DFE4420FDF79AFE0020FDF797FEEE
:103AB0005620FDF794FE0020FDF791FE2320FDF730
:103AC0008EFE0020FDF78BFE3320FDF788FE0020E0
:103AD000FDF785FE4520FDF782FE0020FDF77FFE05
:103AE000E820FDF773FE0020FDF779FE0020FDF7CA
:103AF00076FE9920FDF773FE0020FDF770FE87200B
:103B0000FDF76DFE0020FDF76AFE8820FDF767FED9
:103B10000020FDF764FE7720FDF761FE0020FDF731
:103B20005EFE6620FDF75BFE0020FDF758FE882054
:103B3000FDF755FE0020FDF752FEAA20FDF74FFECF
:103B40000020FDF74CFEBB20FDF749FE0020FDF7ED
:103B500046FE9920FDF743FE0020FDF740FE66205B
:103B6000FDF73DFE0020FDF73AFE5520FDF737FE3C
:103B70000020FDF734FE5520FDF731FE0020FDF753
:103B80002EFE4420FDF72BFE0020FDF728FE4420EA
:103B9000FDF725FE0020FDF722FE5520FDF71FFE54
:103BA0000020FDF71CFEE920FDF710FEAA20FDF71E
:103BB00016FE0020FDF713FE0020FDF710FE00208A
:103BC000FDF70DFE0020FDF701FEAA20FDF707FE20
:103BD000CF20FDF7FBFD0020FDF701FE0020FDF7E3
:103BE000FEFD0020FDF7FBFD0020FDF7F8FD0020A5
:103BF000FDF7F5FD0020FDF7F2FD0020FDF7EFFDDC
:103C00000020FDF7ECFD0020FDF7E9FD0020FDF7A9
:103C1000E6FD0020FDF7E3FD0020FDF7E0FD0020BC
:103C2000FDF7DDFD0020FDF7DAFD0020FDF7D7FDF3
:103C30000020FDF7D4FD0020FDF7D1FDF020FDF7B9
:103C4000C5FD0020FDF7CBFD5020FDF7C8FD00208D
:103C5000FDF7C5FD0020FDF7C2FD0020FDF7BFFD0B
:103C6000F320FDF7B3FD0020FDF7B9FDF920FDF7C6
:103C7000ADFD0620FDF7B3FD1020FDF7B0FD2920B6
:103C8000FDF7ADFD0020FDF7AAFD3A20FDF79EFDF2
:103C90005520FDF7A4FD1120FDF798FD6420FDF7E8
:103CA0000EFC2920FDF792FD3520FDF78FFD002049
:103CB000FDF795FD5120FDF789FDFF20FDF78FFDF4
:103CC0005320FDF783FD2C20FDF789FD5520FDF7DE
:103CD0007DFD8220FDF783FD2C20FDF777FD02F0AE
:103CE000E5B8FE488088A0F5AA4110397ED155215B
:103CF0004FF47040FDF783FDAA214FF20100FDF75C
:103D00007EFD52214FF20200FDF779FD08214FF2AE
:103D10000300FDF774FD01214FF20400FDF76FFD74
:103D20000D214FF43040FDF76AFD0D214BF20100EB
:103D3000FDF765FD0D214BF20200FDF760FD34211A
:103D40004FF43640FDF75BFD34214BF20160FDF787
:103D500056FD34214BF20260FDF751FD0D214FF469
:103D60003140FDF74CFD0D214BF20110FDF747FDF1
:103D70000D214BF20210FDF742FD34214FF4374084
:103D8000FDF73DFD34214BF20170FDF738FD342184
:103D90004BF20270FDF733FD00214FF43240FDF786
:103DA0002EFD00214BF20120FDF729FD00214BF2F1
:103DB0000220FDF724FD24214FF43840FDF71FFDBC
:103DC00024214BF60100FDF71AFD24214BF60200D9
:103DD000FDF715FD01214FF43F40FDF710FD0F21C8
:103DE0004FF43340FDF70BFD0F2100E0FEE34BF2F3
:103DF0000130FDF704FD0F214BF20230FDF7FFFC0F
:103E000034214FF43940FDF7FAFC34214BF6011010
:103E1000FDF7F5FC34214BF60210FDF7F0FC08210C
:103E20004FF43540FDF7EBFC08214BF20150FDF754
:103E3000E6FC08214BF20250FDF7E1FC03214FF4B0
:103E40004240FDF7DCFC24214FF43A40FDF7D7FC5B
:103E500024214BF60120FDF7D2FC24214BF6022051
:103E6000FDF7CDFC00214FF43C40FDF7C8FC782164
:103E70004BF60140FDF7C3FC00214BF60240FDF775
:103E8000BEFC00214FF43D40FDF7B9FC78214BF614
:103E90000150FDF7B4FC00214BF60250FDF7AFFCDA
:103EA00000214FF43E40FDF7AAFC64214BF601606F
:103EB000FDF7A5FC00214FF45140FDF7A0FC332194
:103EC0004DF20110FDF79BFC00214DF20210FDF7B1
:103ED00096FC34214DF20310FDF791FC00214DF2C8
:103EE0000410FDF78CFC3A214DF20510FDF787FC1C
:103EF00000214DF20610FDF782FC4A214DF2071019
:103F0000FDF77DFC00214DF20810FDF778FC5C21E7
:103F10004DF20910FDF773FC00214DF20A10FDF778
:103F20006EFC81214DF20B10FDF769FC00214DF272
:103F30000C10FDF764FCA6214DF20D10FDF75FFC9F
:103F400000214DF20E10FDF75AFCE5214DF20F1045
:103F5000FDF755FC01214DF21010FDF750FC132127
:103F60004DF21110FDF74BFC01214DF21210FDF73F
:103F700046FC54214DF21310FDF741FC01214DF296
:103F80001410FDF73CFC82214DF21510FDF737FCB3
:103F900001214DF21610FDF732FCCA214DF2171027
:103FA000FDF72DFC02214DF21810FDF728FC002131
:103FB0004DF21910FDF723FC02214DF21A10FDF706
:103FC0001EFC01214DF21B10FDF719FC02214DF2E0
:103FD0001C10FDF714FC34214DF21D10FDF70FFCF1
:103FE00002214DF21E10FDF70AFC67214DF21F1051
:103FF000FDF705FC02214DF22010FDF700FC8421A5
:104000004DF22110FDF7FBFB02214DF22210FDF7CE
:10401000F6FBA4214DF22310FDF7F1FB02214DF236
:104020002410FDF7ECFBB7214DF22510FDF7E7FB5F
:1040300002214DF22610FDF7E2FBCF214DF22710B1
:10404000FDF7DDFB02214DF22810FDF7D8FBDE2144
:104050004DF22910FDF7D3FB02214DF22A10FDF796
:10406000CEFBF2214DF22B10FDF7C9FB02214DF2E0
:104070002C10FDF7C4FBFE214DF22D10FDF7BFFB08
:1040800003214DF22E10FDF7BAFB10214DF22F1037
:10409000FDF7B5FB03214DF23010FDF7B0FB3321E6
:1040A0004DF23110FDF7ABFB03214DF23210FDF75D
:1040B000A6FB6D214DF23310FDF7A1FB00214FF45B
:1040C0005240FDF79CFB33214DF20120FDF797FB99
:1040D00000214DF20220FDF792FB01E0A80600202E
:1040E00034214DF20320FDF78AFB00214DF204201C
:1040F000FDF785FB3A214DF20520FDF780FB0021FD
:104100004DF20620FDF77BFB4A214DF20720FDF71B
:1041100076FB00214DF20820FDF771FB5C214DF28A
:104120000920FDF76CFB00214DF20A20FDF767FB2B
:1041300081214DF20B20FDF762FB00214DF20C2096
:10414000FDF75DFBA6214DF20D20FDF758FB002188
:104150004DF20E20FDF753FBE5214DF20F20FDF748
:104160004EFB01214DF21020FDF749FB13214DF2CA
:104170001120FDF744FB01214DF21220FDF73FFB1A
:1041800054214DF21320FDF73AFB01214DF214208A
:10419000FDF735FB82214DF21520FDF730FB0121A3
:1041A0004DF21620FDF72BFBCA214DF21720FDF72B
:1041B00026FB02214DF21820FDF721FB00214DF2D4
:1041C0001920FDF71CFB02214DF21A20FDF717FB09
:1041D00001214DF21B20FDF712FB02214DF21C20A4
:1041E000FDF70DFB34214DF21D20FDF708FB0221E8
:1041F0004DF21E20FDF703FB67214DF21F20FDF756
:10420000FEFA02214DF22020FDF7F9FA84214DF249
:104210002120FDF7F4FA02214DF22220FDF7EFFAFA
:10422000A4214DF22320FDF7EAFA02214DF22420C9
:10423000FDF7E5FAB7214DF22520FDF7E0FA02215E
:104240004DF22620FDF7DBFACF214DF22720FDF7B6
:10425000D6FA02214DF22820FDF7D1FADE214DF2E7
:104260002920FDF7CCFA02214DF22A20FDF7C7FAEA
:10427000F2214DF22B20FDF7C2FA02214DF22C2043
:10428000FDF7BDFAFE214DF22D20FDF7B8FA03210E
:104290004DF22E20FDF7B3FA10214DF22F20FDF73D
:1042A000AEFA03214DF23020FDF7A9FA33214DF289
:1042B0003120FDF7A4FA03214DF23220FDF79FFAD9
:1042C0006D214DF23320FDF79AFA00214FF453404F
:1042D000FDF795FA33214DF20130FDF790FA0021F8
:1042E0004DF20230FDF78BFA34214DF20330FDF729
:1042F00086FA00214DF20430FDF781FA3A214DF2A1
:104300000530FDF77CFA00214DF20630FDF777FA13
:104310004A214DF20730FDF772FA00214DF20830C4
:10432000FDF76DFA5C214DF20930FDF768FA0021C6
:104330004DF20A30FDF763FA81214DF20B30FDF7A3
:104340005EFA00214DF20C30FDF759FAA6214DF22C
:104350000D30FDF754FA00214DF20E30FDF74FFA03
:10436000E5214DF20F30FDF74AFA01214DF21030F0
:10437000FDF745FA13214DF21130FDF740FA012106
:104380004DF21230FDF73BFA54214DF21330FDF798
:1043900036FA01214DF21430FDF731FA82214DF247
:1043A0001530FDF72CFA01214DF21630FDF727FAF2
:1043B000CA214DF21730FDF722FA02214DF21830D2
:1043C000FDF71DFA00214DF21930FDF718FA022110
:1043D0004DF21A30FDF713FA01214DF21B30FDF7B3
:1043E0000EFA02214DF21C30FDF709FA34214DF28C
:1043F0001D30FDF704FA02214DF21E30FDF7FFF9E2
:1044000067214DF21F30FDF7FAF902214DF22030FD
:10441000FDF7F5F984214DF22130FDF7F0F9022185
:104420004DF22230FDF7EBF9A4214DF22330FDF7D8
:10443000E6F902214DF22430FDF7E1F9B7214DF202
:104440002530FDF7DCF902214DF22630FDF7D7F9D2
:10445000CF214DF22730FDF7D2F902214DF228305D
:10446000FDF7CDF9DE214DF22930FDF7C8F9022123
:104470004DF22A30FDF7C3F9F2214DF22B30FDF752
:10448000BEF902214DF22C30FDF7B9F9FE214DF2B3
:104490002D30FDF7B4F903214DF22E30FDF7AFF9C1
:1044A00010214DF22F30FDF7AAF903214DF23030E3
:1044B000FDF7A5F933214DF23130FDF7A0F90321C5
:1044C0004DF23230FDF79BF96D214DF23330FDF79F
:1044D00096F900214FF45440FDF791F933214DF244
:1044E0000140FDF78CF900214DF20240FDF787F9FC
:1044F00034214DF20340FDF782F900214DF20440D2
:10450000FDF77DF93A214DF20540FDF778F90021DC
:104510004DF20640FDF773F94A214DF20740FDF7D1
:104520006EF900214DF20840FDF769F95C214DF26A
:104530000940FDF764F900214DF20A40FDF75FF9EB
:1045400081214DF20B40FDF75AF900214DF20C404C
:10455000FDF755F9A6214DF20D40FDF750F9002168
:104560004DF20E40FDF74BF9E5214DF20F40FDF7FE
:1045700046F901214DF21040FDF741F913214DF2AA
:104580001140FDF73CF901214DF21240FDF737F9DA
:1045900054214DF21340FDF732F901214DF2144040
:1045A000FDF72DF982214DF21540FDF728F9012183
:1045B0004DF21640FDF723F9CA214DF21740FDF7E1
:1045C0001EF902214DF21840FDF719F900214DF2B4
:1045D0001940FDF714F902214DF21A40FDF70FF9C9
:1045E00001214DF21B40FDF70AF900E004E302212E
:1045F0004DF21C40FDF703F934214DF21D40FDF74B
:10460000FEF802214DF21E40FDF7F9F867214DF248
:104610001F40FDF7F4F802214DF22040FDF7EFF8BE
:1046200084214DF22140FDF7EAF802214DF22240AB
:10463000FDF7E5F8A4214DF22340FDF7E0F8022153
:104640004DF22440FDF7DBF8B7214DF22540FDF790
:10465000D6F802214DF22640FDF7D1F8CF214DF2D8
:104660002740FDF7CCF802214DF22840FDF7C7F8AE
:10467000DE214DF22940FDF7C2F802214DF22A4019
:10468000FDF7BDF8F2214DF22B40FDF7B8F80221FD
:104690004DF22C40FDF7B3F8FE214DF22D40FDF711
:1046A000AEF803214DF22E40FDF7A9F810214DF28E
:1046B0002F40FDF7A4F803214DF23040FDF79FF89D
:1046C00033214DF23140FDF79AF803214DF232408B
:1046D000FDF795F86D214DF23340FDF790F800217C
:1046E0004FF45540FDF78BF833214DF20150FDF7A3
:1046F00086F800214DF20250FDF781F834214DF289
:104700000350FDF77CF800214DF20450FDF777F8D7
:104710003A214DF20550FDF772F800214DF2065096
:10472000FDF76DF84A214DF20750FDF768F80021BA
:104730004DF20850FDF763F85C214DF20950FDF78A
:104740005EF800214DF20A50FDF759F881214DF233
:104750000B50FDF754F800214DF20C50FDF74FF8C7
:10476000A6214DF20D50FDF74AF800214DF20E50F2
:10477000FDF745F8E5214DF20F50FDF740F8012116
:104780004DF21050FDF73BF813214DF21150FDF79B
:1047900036F801214DF21250FDF731F854214DF257
:1047A0001350FDF72CF801214DF21450FDF727F8B6
:1047B00082214DF21550FDF722F801214DF21650DD
:1047C000FDF71DF8CA214DF21750FDF718F8022128
:1047D0004DF21850FDF713F800214DF21950FDF776
:1047E0000EF802214DF21A50FDF709F801214DF2A1
:1047F0001B50FDF704F802214DF21C50FCF7FFFF9F
:1048000034214DF21D50FCF7FAFF02214DF21E50EB
:10481000FCF7F5FF67214DF21F50FCF7F0FF022176
:104820004DF22050FCF7EBFF84214DF22150FCF7B4
:10483000E6FF02214DF22250FCF7E1FFA4214DF2E8
:104840002350FCF7DCFF02214DF22450FCF7D7FF88
:10485000B7214DF22550FCF7D2FF02214DF2265030
:10486000FCF7CDFFCF214DF22750FCF7C8FF022106
:104870004DF22850FCF7C3FFDE214DF22950FCF722
:10488000BEFF02214DF22A50FCF7B9FFF2214DF292
:104890002B50FCF7B4FF02214DF22C50FCF7AFFF78
:1048A000FE214DF22D50FCF7AAFF03214DF22E50B0
:1048B000FCF7A5FF10214DF22F50FCF7A0FF0321BC
:1048C0004DF23050FCF79BFF33214DF23150FCF795
:1048D00096FF03214DF23250FCF791FF6D214DF20E
:1048E0003350FCF78CFF00214FF45640FCF787FF54
:1048F00033214DF20160FCF782FF00214DF202608E
:10490000FCF77DFF34214DF20360FCF778FF0021B6
:104910004DF20460FCF773FF3A214DF20560FCF79D
:104920006EFF00214DF20660FCF769FF4A214DF24F
:104930000760FCF764FF00214DF20860FCF75FFFA1
:104940005C214DF20960FCF75AFF00214DF20A602C
:10495000FCF755FF81214DF20B60FCF750FF002161
:104960004DF20C60FCF74BFFA6214DF20D60FCF7F9
:1049700046FF00214DF20E60FCF741FFE5214DF2AC
:104980000F60FCF73CFF01214DF21060FCF737FF90
:1049900013214DF21160FCF732FF01214DF212603C
:1049A000FCF72DFF54214DF21360FCF728FF012185
:1049B0004DF21460FCF723FF82214DF21560FCF7E5
:1049C0001EFF01214DF21660FCF719FFCA214DF2BE
:1049D0001760FCF714FF02214DF21860FCF70FFF7F
:1049E00000214DF21960FCF70AFF02214DF21A6016
:1049F000FCF705FF01214DF21B60FCF700FF0221CF
:104A00004DF21C60FCF7FBFE34214DF21D60FCF7FB
:104A1000F6FE02214DF21E60FCF7F1FE67214DF219
:104A20001F60FCF7ECFE02214DF22060FCF7E7FE70
:104A300084214DF22160FCF7E2FE02214DF222605A
:104A4000FCF7DDFEA4214DF22360FCF7D8FE022125
:104A50004DF22460FCF7D3FEB7214DF22560FCF740
:104A6000CEFE02214DF22660FCF7C9FECF214DF2A9
:104A70002760FCF7C4FE02214DF22860FCF7BFFE60
:104A8000DE214DF22960FCF7BAFE02214DF22A60C8
:104A9000FCF7B5FEF2214DF22B60FCF7B0FE0221CF
:104AA0004DF22C60FCF7ABFEFE214DF22D60FCF7C1
:104AB000A6FE03214DF22E60FCF7A1FE10214DF25F
:104AC0002F60FCF79CFE03214DF23060FCF797FE4F
:104AD00033214DF23160FCF792FE03214DF232603A
:104AE000FCF78DFE6D214DF23360FCF788FE5521F9
:104AF0004FF47040FCF783FEAA214FF20100FCF74F
:104B00007EFE52214FF20200FCF779FE08214FF29F
:104B10000300FCF774FE00214FF20400FCF76FFE67
:104B2000CC214FF43140FCF76AFE00214BF201101A
:104B3000FCF765FE05214FF43640FCF760FE70215E
:104B40004FF43740FCF75BFE70214BF20170FCF72D
:104B500056FE01214FF43840FCF751FE03214BF67D
:104B60000100FCF74CFE03214BF60200FCF747FE68
:104B700003214BF60300FCF742FE02214FF43C40B8
:104B8000FCF73DFE00214BF60140FCF738FE00210A
:104B90004BF60240FCF733FED0214FF44940FCF7BE
:104BA0002EFE02214CF60110FCF729FE50214CF696
:104BB0000210FCF724FE50214CF60310FCF71FFEF8
:104BC00050214CF60410FCF71AFE00214FF454500B
:104BD000FCF715FE55214FF46850FCF710FE4FF41A
:104BE0008850FCF7F3FD7820FCF723FC4FF42450A9
:104BF000FCF7ECFD01F05AB9FE488088A0F513419E
:104C000025397DD147F6F001E520FCF7F8FD4FF49A
:104C100080710120FCF7F3FD4FF4E0610220FCF706
:104C2000EEFD41F230010320FCF7E9FD00210420F4
:104C3000FCF7E5FD40F202210820FCF7E0FD002131
:104C40000920FCF7DCFD00210A20FCF7D8FD00213B
:104C50000C20FCF7D4FD00210D20FCF7D0FD002135
:104C60000F20FCF7CCFD00211020FCF7C8FD072128
:104C70001120FCF7C4FD00211220FCF7C0FD00212B
:104C80001320FCF7BCFD00210720FCF7B8FD41F222
:104C900090611020FCF7B3FD40F227211120FCF7B2
:104CA000AEFD9D211220FCF7AAFD4FF4C851132040
:104CB000FCF7A5FD25212920FCF7A1FD0D212B20C6
:104CC000FCF79DFD07213020FCF799FD40F20331F0
:104CD0003120FCF794FD03213220FCF790FD40F2D7
:104CE00006213520FCF78BFD08213620FCF787FDD7
:104CF00040F206413720FCF782FD4FF4417100E09D
:104D000058E03820FCF77BFD07213920FCF777FDC0
:104D100040F202613C20FCF772FD08213D20FCF7C7
:104D20006EFD00215020FCF76AFDEF215120FCF7B9
:104D300066FD00215220FCF762FD40F23F11532036
:104D4000FCF75DFD4FF427416020FCF758FD012181
:104D50006120FCF754FD00216A20FCF750FD002182
:104D60008020FCF74CFD00218120FCF748FD00214C
:104D70008220FCF744FD00218320FCF740FD002148
:104D80008420FCF73CFD00218520FCF738FD102134
:104D90009020FCF734FD4FF4C0619220FCF72FFD0A
:104DA00040F233110720FCF72AFD22210020FCF7F6
:104DB00026FD1FE78F488088A0F5134128397DD153
:104DC00041F28F01EC20FCF71AFD41F23421EF2073
:104DD000FCF715FD4FF480710120FCF710FD4FF436
:104DE000E0610220FCF70BFD41F230010320FCF7EB
:104DF00006FD00210420FCF702FD40F202210820FC
:104E0000FCF7FDFC00210920FCF7F9FC00210A2039
:104E1000FCF7F5FC01210C20FCF7F1FC00210D2032
:104E2000FCF7EDFC00210F20FCF7E9FC002110202D
:104E3000FCF7E5FC07211120FCF7E1FC0021122022
:104E4000FCF7DDFC00211320FCF7D9FC0121072031
:104E5000FCF7D5FC3220FCF732FB41F290411020E8
:104E6000FCF7CDFC40F227211120FCF7C8FC3220D2
:104E7000FCF725FB8A211220FCF7C1FC3220FCF74D
:104E80001EFB4FF4D0511320FCF7B9FC062129205A
:104E9000FCF7B5FC0D212B20FCF7B1FC3220FCF710
:104EA0000EFB00212020FCF7AAFC00212120FCF7AA
:104EB000A6FC3220FCF703FB002100E075E0302067
:104EC000FCF79DFC40F204613120FCF798FC40F2B5
:104ED00005313220FCF793FC00213520FCF78FFCD4
:104EE00040F609413620FCF78AFC4FF40171372067
:104EF000FCF785FC40F201313820FCF780FC40F2E1
:104F000007713920FCF77BFC00213C20FCF777FC83
:104F100040F60A213D20FCF772FC3220FCF7CFFA64
:104F200000215020FCF76BFCEF215120FCF767FCBF
:104F300000215220FCF763FC40F23F115320FCF7A4
:104F40005EFC4FF427416020FCF759FC01216120F1
:104F5000FCF755FC00216A20FCF751FC0021802061
:104F6000FCF74DFC00218120FCF749FC0021822048
:104F7000FCF745FC00218320FCF741FC0021842044
:104F8000FCF73DFC00218520FCF739FC1021902026
:104F9000FCF735FC4FF4C0619220FCF730FC40F286
:104FA00033110720FCF72BFC24E612488088A0F57B
:104FB000134120397ED10846FCF721FC4FF4807163
:104FC0000120FCF71CFC4FF4E0610220FCF717FC09
:104FD00041F230010320FCF712FC00210420FCF711
:104FE0000EFC40F202210820FCF709FC00210920F8
:104FF00002E00000A8060020FCF701FC00210A20C6
:10500000FCF7FDFB01210C20FCF7F9FB00210D2032
:10501000FCF7F5FB00210F20FCF7F1FB3220FCF739
:105020004EFA40F201110720FCF7E9FB3220FCF7B1
:1050300046FA4FF486511020FCF7E1FB07211120BE
:10504000FCF7DDFB4FF488711220FCF7D8FB4FF41E
:1050500030611320FCF7D3FB00212920FCF7CFFBA4
:1050600044F210012B20FCF7CAFB00215020FCF772
:10507000C6FBEF215120FCF7C2FB00215220FCF7B8
:10508000BEFB40F23F115320FCF7B9FB4FF41C511B
:105090006020FCF7B4FB01216120FCF7B0FB00218C
:1050A0006A20FCF7ACFB00218020FCF7A8FB002164
:1050B000812000E030E0FCF7A2FB00218220FCF719
:1050C0009EFB00218320FCF79AFB00218420FCF743
:1050D00096FB00218520FCF792FB10219020FCF725
:1050E0008EFB00219220FCF78AFB01219320FCF724
:1050F00086FB4FF488719520FCF781FB00219720F7
:10510000FCF77DFB00219820FCF779FB40F273113E
:105110000720FCF774FB6DE5FE488088A0F513417D
:1051200031397DD141F21401E720FCF768FB4FF4DF
:1051300080710120FCF763FB4FF400710220FCF743
:105140005EFB41F238010320FCF759FB40F20221DB
:105150000820FCF754FB00210920FCF750FB00213C
:105160000A20FCF74CFB00210C20FCF748FB002137
:105170000D20FCF744FB00210F20FCF740FB002131
:105180001020FCF73CFB07211120FCF738FB002125
:105190001220FCF734FB00211320FCF730FBC82061
:1051A000FCF78DF941F290611020FCF728FB40F2EA
:1051B00027211120FCF723FB3220FCF780F90C217A
:1051C0001220FCF71CFB3220FCF779F94FF4006148
:1051D0001320FCF714FB11212920FCF710FB0B21F5
:1051E0002B20FCF70CFB3220FCF769F90021202072
:1051F000FCF705FB40F23F112120FCF700FB0021EA
:105200003020FCF7FCFA4FF483713120FCF7F7FAF9
:1052100000213220FCF7F3FA4FF40171352000E051
:1052200064E0FCF7ECFA41F20A613620FCF7E7FA99
:1052300040F207713720FCF7E2FA4FF4837138200F
:10524000FCF7DDFA40F207713920FCF7D8FA40F29A
:1052500002413C20FCF7D3FA40F60F413D20FCF719
:10526000CEFA00215020FCF7CAFAEF215120FCF7BA
:10527000C6FA00215220FCF7C2FA40F23F11532037
:10528000FCF7BDFA4FF41C516020FCF7B8FA01217D
:105290006120FCF7B4FA00216A20FCF7B0FA002183
:1052A0008020FCF7ACFA00218120FCF7A8FA00214D
:1052B0008220FCF7A4FA00218320FCF7A0FA002149
:1052C0008420FCF79CFA00218520FCF798FA102135
:1052D0009020FCF794FA4FF4C0619220FCF78FFA0B
:1052E00040F233110720FCF78AFA83E4894880886A
:1052F000A0F5A84108397DD14FF480710120FCF759
:105300007EFA4FF4E0610220FCF779FA41F23001B5
:105310000320FCF774FA00210420FCF770FA40F235
:1053200007210820FCF76BFA00210920FCF767FA37
:1053300000210A20FCF763FA00210C20FCF75FFA39
:1053400000210D20FCF75BFA00210F20FCF757FA33
:105350001420FCF7B4F841F2B0611020FCF74FFACA
:1053600001211120FCF74BFA01211720FCF747FA25
:105370004FF49C711220FCF742FA4FF400611320A5
:10538000FCF73DFA09212920FCF739FA09212A20E6
:10539000FCF735FA0021A420FCF731FA0021502057
:1053A000FCF72DFAEF215120FCF729FA00215220B9
:1053B000FCF725FA40F23F115320FCF720FA4FF496
:1053C0001C516020FCF71BFA01216120FCF717FA41
:1053D00000216A20FCF713FA00218020FCF70FFA65
:1053E00000218120FCF70BFA00218220FCF707FA4C
:1053F000002100E024E08320FCF701FA0021842052
:10540000FCF7FDF900218520FCF7F9F91321902024
:10541000FCF7F5F900219220FCF7F1F90321932024
:10542000FCF7EDF94FF488719520FCF7E8F940F2AC
:1054300073110720FCF7E3F93220FCF740F8B8E4D9
:1054400034488088A0F5A851053965D10720FCF7BC
:10545000D6F93220FCF733F84FF48E711220FCF7A6
:10546000CEF90121A420FCF7CAF90F210820FCF78E
:10547000C6F908210A20FCF7C2F908210D20FCF723
:10548000BEF940F207713020FCF7B9F9072131204D
:10549000FCF7B5F940F203613220FCF7B0F94FF4A4
:1054A000E0613320FCF7ABF940F202213420FCF735
:1054B000A6F902213520FCF7A2F941F60F7136203A
:1054C000FCF79DF940F207713720FCF798F90021AD
:1054D0003820FCF794F900213920FCF790F940F2CC
:1054E00007713A20FCF78BF900213B20FCF787F984
:1054F00007213C20FCF783F900213D20FCF77FF9D0
:105500003220FBF7DCFF01210720FCF778F90121AD
:10551000172002E0A8060020AEE0FCF770F9322068
:10552000FBF7CDFF4FF4BD511020FCF768F940F2B6
:1055300017211120FCF763F94FF48F711220FCF74B
:105540005EF94FF470611320FCF759F900212A200D
:10555000FCF755F90A212920FCF751F94FF49F7106
:105560001220FCF74CF900215020FCF748F9EF21FC
:105570005120FCF744F900215220FCF740F940F299
:105580003F115320FCF73BF94FF41C516020FCF70E
:1055900036F901216120FCF732F900216A20FCF77D
:1055A0002EF900218020FCF72AF900218120FCF748
:1055B00026F900218220FCF722F900218320FCF744
:1055C0001EF900218420FCF71AF900218520FCF740
:1055D00016F913219020FCF712F94FF44071922034
:1055E000FCF70DF905219320FCF709F9002195201E
:1055F000FCF705F900219720FCF701F9002198201C
:10560000FCF7FDF84FF480710120FCF7F8F84FF437
:10561000E0610220FCF7F3F841F238010320FCF7C7
:10562000EEF800210420FCF7EAF800210C20FCF73A
:10563000E6F800210F20FCF7E2F800212020FCF71B
:10564000DEF800212120FCF7DAF821210720FCF701
:10565000D6F81420FBF733FF61210720FCF7CFF8C1
:105660001420FBF72CFF40F273110720FCF7C7F85A
:105670001420FBF724FF97E4FE488088A0F535410D
:1056800005397DD10846FCF7BAF800210846FCF739
:10569000B6F800210846FCF7B2F800210846FCF7EE
:1056A000AEF80121A420FCF7AAF81420FBF707FFAD
:1056B0004FF41C516020FCF7A2F840F202210820B0
:1056C000FCF79DF84FF405713020FCF798F843F291
:1056D00015713120FCF793F840F204613220FCF799
:1056E0008EF840F616613320FCF789F842F211215A
:1056F0003420FCF784F84FF4A8513520FCF77FF8EC
:1057000048F207513620FCF77AF841F2074137207A
:10571000FCF775F841F203413820FCF770F82021BE
:105720003920FCF76CF81A219020FCF768F800216A
:105730001020FCF764F807211120FCF760F8002125
:105740001220FCF75CF800211320FCF758F8142015
:10575000FBF7B5FE4FF4E6611020FCF750F840F27D
:1057600037111120FCF74BF81420FBF7A8FE4FF47B
:10577000DC711220FCF743F81420FBF7A0FE00E0D8
:1057800083E04FF470611320FCF739F880212A2060
:10579000FCF735F848212920FCF731F81420FBF7F5
:1057A0008EFE4FF480710120FCF729F84FF4E06180
:1057B0000220FCF724F841F238010320FCF71FF81F
:1057C00040F202210820FCF71AF800210A20FCF719
:1057D00016F800210C20FCF712F800210D20FCF730
:1057E0000EF830210E20FCF70AF800215020FCF7BB
:1057F00006F8EF215120FCF702F800215220FBF7B8
:10580000FEFF40F23F115320FBF7F9FF4FF41C510C
:105810006020FBF7F4FF01216120FBF7F0FF00217E
:105820006A20FBF7ECFF11219020FBF7E8FF4FF413
:10583000C0619220FBF7E3FF40F202419320FBF7A7
:10584000DEFF02219420FBF7DAFF1420FBF737FE7E
:1058500001210720FBF7D3FF1420FBF730FE612165
:105860000720FBF7CCFF40F273110720FBF7C7FFBF
:1058700000212020FBF7C3FF00212120FBF7BFFF01
:1058800022210020FBF7BBFF10E37A488088A0F5B7
:10589000454105397DD10846FBF7B1FF0021084697
:1058A000FBF7ADFF1420FBF70AFE00210846FBF7CB
:1058B000A6FF00210846FBF7A2FF00210846FBF7E0
:1058C0009EFF00210846FBF79AFF0121A420FBF769
:1058D00096FF1420FBF7F3FD4FF41C516020FBF7FB
:1058E0008EFF40F606010820FBF789FF40F20371A6
:1058F0003020FBF784FF01213120FBF780FF0421DA
:105900003220FBF77CFF4FF481713320FBF777FFE8
:105910004FF440713420FBF772FF40F20311352041
:10592000FBF76DFF1F213620FBF769FF40F2037183
:105930003720FBF764FF01213820FBF760FF0421CB
:105940003920FBF75CFF15219020FBF758FF4FF43F
:1059500082611020FBF753FF40F247211120FBF733
:105960004EFF4FF4DE711220FBF749FF4FF46061E8
:105970001320FBF744FF7820FBF7A1FD4FF4807163
:105980000120FBF73CFF4FF400710220FBF737FFCB
:1059900000E050E041F230010320FBF730FF082126
:1059A0000A20FBF72CFF00210C20FBF728FF202109
:1059B0000E20FBF724FF00210F20FBF720FF002122
:1059C0002020FBF71CFF00212120FBF718FF3D21C1
:1059D0002A20FBF714FF1420FBF771FD2D2129204D
:1059E000FBF70DFF00215020FBF709FF4DF2EF01FF
:1059F0005120FBF704FF00215220FBF700FF40F28B
:105A00003F115320FBF7FBFE00216120FBF7F7FE5F
:105A100000216A20FBF7F3FE4FF440719220FBF760
:105A2000EEFE05219320FBF7EAFE4FF4807107207C
:105A3000FBF7E5FE3AE20F488088A0F58A4131394C
:105A40007ED101210020FBF7DAFE0A20FBF737FDAB
:105A500041F228611020FBF7D2FE0E211220FBF745
:105A6000CEFE40F639211320FBF7C9FE0A20FBF7D2
:105A700026FD01E0A806002040211120FBF7BFFE13
:105A800050211520FBF7BBFE0A20FBF718FD1E2155
:105A90001220FBF7B4FE0A20FBF711FD4FF4B151C1
:105AA0001020FBF7ACFE42F639211320FBF7A7FECE
:105AB0000A20FBF704FD4FF480710120FBF79FFEE5
:105AC0004FF440710220FBF79AFE41F238010320A7
:105AD000FBF795FE40F202210820FBF790FE08211B
