:020000040800F2
:10000000080B0020490B00082109000823090008FB
:10001000270900082B0900082F090008000000002C
:10002000000000000000000000000000330900088C
:1000300035090008000000003709000839090008E8
:10004000630B0008630B0008630B000829CD000850
:10005000630B0008630B0008630B0008630B0008C8
:10006000630B0008630B0008630B0008630B0008B8
:10007000630B0008630B0008630B0008630B0008A8
:10008000630B0008630B0008630B0008630B000898
:10009000630B0008630B0008630B0008630B000888
:1000A000630B000847CE0008630B0008B7CE0008BA
:1000B000630B000859A20008630B0008630B0008DB
:1000C000630B0008630B0008630B0008630B000858
:1000D000630B000863530008630B000891A4000839
:1000E000630B000805CD0008630B0008630B0008D4
:1000F000630B0008630B0008630B0008630B000828
:10010000630B0008630B00082DA30008630B0008B5
:10011000630B0008630B0008630B000843A400088E
:10012000630B0008630B0008630B0008630B0008F7
:10013000630B0008630B0008630B0008630B0008E7
:10014000630B0008630B0008630B0008630B0008D7
:10015000630B0008630B0008630B0008630B0008C7
:10016000630B0008630B0008630B0008630B0008B7
:10017000630B0008630B0008630B0008630B0008A7
:10018000630B0008630B000800F002F800F092F81F
:100190000AA090E8000C82448344AAF10107DA45E2
:1001A00001D100F087F8AFF2090EBAE80F0013F0A2
:1001B000010F18BFFB1A43F0010318470C17010089
:1001C0002C170100103A24BF78C878C1FAD852071A
:1001D00024BF30C830C144BF04680C6070470000C1
:1001E0000023002400250026103A28BF78C1FBD840
:1001F000520728BF30C148BF0B6070476E290DF011
:10020000208770290DF06E8566290FF04D866529CF
:100210000FF04A8667290FF047866129AFF3008007
:1002200003681B0A28BF41F0800169290DF0DC84B6
:1002300064290DF0D98475290DF0D6846F290EF04C
:100240001B8078290DF03A85E9290DF0B387E42960
:100250000DF0B087F5290DF0AD87EF290EF018806D
:10026000F8290DF039850368DB0928BF41F08001CA
:1002700063290DF0228773290DF02787E3290EF0FB
:100280007482F3290EF07982002070471FB50FF0B9
:1002900006FE0EF0CDFA0400002000210EF0B2FFA1
:1002A000401C6060002000210EF096FFE0601FBD42
:1002B00010B510BD0EF08EFA1146FFF7E7FF00F003
:1002C00095F90EF06BFB03B4FFF7F2FF03BC04F0EB
:1002D000E9FF000070471CB505F088F806F015F836
:1002E00005F0C4F84FF60740FE490880FEA018212B
:1002F0000B464FF4F072CDE9001000216E2009F09A
:100300004BFF1F20F7490880FCA018210B46C8228C
:10031000CDE900100A2009F03FFFF9488288F9A1D1
:10032000FA480DF0F9FBF94818210B46C822CDE92F
:100330000010104609F030FF4FF4FC60E9490880D6
:10034000F3A018210B46C822CDE90010500009F097
:1003500023FF1F20E3490880EEA018210B46C82286
:10036000CDE9001030210A2009F016FF4FF4784043
:10037000DC49088009E0E8A018210B46C822CDE935
:1003800000103021500009F007FF0CF097FB002807
:10039000F1D14FF4FC60D3490880DDA018210B4651
:1003A000C822CDE900103021500009F0F5FE1F20D1
:1003B000CC490880D9A018210B46C822CDE90010ED
:1003C00048210A2009F0E8FED5A018210B46C822D2
:1003D000CDE9001060210A2009F0DEFE4FF4FC6038
:1003E000C0490880CAA018210B46C822CDE90010D8
:1003F0004821500009F0D0FEC5A018210B46C822A4
:10040000CDE900106021500009F0C6FE1F20B5495B
:100410000880C4A018210B46C822CDE9001078211D
:100420000A2009F0B9FE4FF47840AE49088009E08F
:10043000B9A018210B46C822CDE900107821500040
:1004400009F0AAFEB949086880470028F0D14FF4A6
:10045000FC60A4490880AEA018210B46C822CDE953
:1004600000107821500009F097FE1F209D49088058
:10047000AFA018210B46C822CDE9001090210A2018
:1004800009F08AFE0CF074FB002104200CF004FC3F
:100490004FF4FC60934908809DA018210B46C822A8
:1004A000CDE900109021500009F076FE0AF0B2F874
:1004B0001F208C4908809FA018210B46C822CDE937
:1004C0000010A8210A2009F067FE4FF4FC6085495E
:1004D00008808FA018210B46C822CDE90010A82162
:1004E000500009F059FE0CF041FC1F207D490880A6
:1004F00091A018210B46C822CDE90010C0210A2086
:1005000009F04AFE4FF4FC607649088080A018216B
:100510000B46C822CDE90010C021500009F03CFE76
:100520000120884908700846007806231A460521EC
:10053000009000200CF088FD1F206A49088082A0EE
:1005400018210B46C822CDE90010D8210A2009F055
:1005500023FE4FF4FC60634908806DA018210B4610
:10056000C822CDE90010D821500009F015FE4FF641
:100570001F005C4908807348007801280AD173A0E5
:1005800018210B46C822CDE900107821F02009F08F
:1005900003FE09E070A018210B46C822CDE9001027
:1005A0007821F02009F0F8FD04F040FF1F204D49AC
:1005B00008806BA018210B46C822CDE90010F0215D
:1005C0000A2009F0E9FD4FF4FC604649088050A07C
:1005D00018210B46C822CDE90010F021500009F087
:1005E000DBFD40F2DC5004F03CFE1CBD2DE9F04781
:1005F00090B00027B8464FF0FF094FF4A06000F01C
:10060000C3FA4FF4E13004F05AFEA82004F0CAFD0A
:10061000FFF761FE454890F8300010F0800F5FD082
:100620005AE151480078002833D04FF6FF700CF0A3
:1006300077FE4FF478401F214CA21823CDE90032F9
:10064000CDE902101C23C8220A2108460CF06EFED8
:100650004FF478401F212FA21823CDE90032CDE9B5
:1006600002101C23C8220A21D2200CF05FFE4FF496
:1006700078401F213FA21823CDE90032CDE90210B6
:100680001C23C82226210A200CF050FE00203649E7
:10069000087026484168002088470024AAE02348C3
:1006A00090F820000121A14008421AD01F480C30C8
:1006B00030F814000A2870DB1C480C3030F81400A5
:1006C000D2286ADC1948163030F814000A2864DB96
:1006D0001648163030F8140026285EDC294854E00D
:1006E000FBE085E03600002057454C434F4D452048
:1006F000746F204D79204C69666500004C434400BE
:100700006C01002049443A20257800009800002020
:100710004F4B0000524E47004E4F00004C454400E6
:100720004B455900544F5543480000004C000020F1
:100730005254430041444300496E667261726564DD
:10074000000000000100002043616E004C6F6F70DC
:100750004261636B000000004E6F726D616C0000BF
:100760004245455000000000000000204C45443048
:1007700000000000496E66726172656420436F6E0E
:1007800074726C00A882424207E0006808B9012038
:1007900000E00020534908602AE0534830F8140074
:1007A000D22824DB504830F81400B0F5CD7F1EDC91
:1007B0004D480A3030F814000A2818DB4A480A303D
:1007C00030F81400262812DC062101200CF09FF9D5
:1007D00082464FF47840454908801020034652462F
:1007E0000C2100904FF4827009F01EFC00E000BF65
:1007F000601CC4B2052CFFF652AF0CF009FF0021BB
:10080000394820F814100A3020F8141005A90020E7
:1008100002F0FEFF9DF814009DF81610CDE90010BF
:100820009DF815309DF8172031A10BA80DF074F933
:1008300004A9002002F052FF9DF8120000909DF8DC
:1008400011309DF810202FA106A80DF065F90020A9
:10085000264908800BA81821CDE900102C484088B3
:10086000303881B218234FF496720A2009F094FCB4
:1008700006A81821CDE9001025484088303881B2FB
:1008800018234FF496724FF49B7009F085FC1F20DB
:10089000164908801FA01821CDE900101C48408887
:1008A000483881B218237822142009F075FC09F029
:1008B00034FF05464FF478400C490880642095FBCE
:1008C000F0F61820009012484088483881B2022380
:1008D0003246842009F0A8FBA3E6002010B0BDE852
:1008E000F0870000A8824242580000203600002015
:1008F0002534642F2532642F253264207765656B9B
:100900003A2564002532643A2532643A253264007F
:100910006C0100204350552074656D703A00000052
:10092000704700BFFEE700BFFEE700BFFEE700BF65
:10093000FEE7704770477047704700000CB5002015
:10094000019000907548006840F480307349086059
:1009500000BF7248006800F4003000900198401C0D
:100960000190009818B90198B0F5A04FF1D16B48EB
:10097000006810F4003F02D00120009001E0002048
:1009800000900098012845D164484030006840F04C
:1009900080506249403108606148006840F440403E
:1009A0005F4908605D48083000685C4908310860AC
:1009B0000846006840F4004008600846006840F4BB
:1009C000A05008605748091F0860081F006840F0E1
:1009D0008070091F086000BF5048006810F0007F59
:1009E000FAD040F20570504908604C480830006861
:1009F00020F003004949083108600846006840F0CB
:100A00000200086000BF45480830006800F00C0094
:100A10000828F8D10CBD10B54448006840F47000B7
:100A2000424908603D48006840F001003B490860C9
:100A300000203A4908310860384800683C490840BD
:100A4000364908603B48091D0860081F006820F40B
:100A50008020091F0860002030490C310860FFF732
:100A60006DFF4FF0006031498039086010BD70B5EE
:100A700000200022022300240221284D08352D6881
:100A800005F00C0020B1042806D0082834D107E076
:100A9000294D2A4E356033E0294D284E35602FE030
:100AA0001E4D2D1D2D68C5F380541C4D2D1D2D6828
:100AB00005F03F0154B1224DB5FBF1F5174E361D3F
:100AC0003668C6F3881605FB06F209E01A4DB5FB39
:100AD000F1F5124E361D3668C6F3881605FB06F290
:100AE0000E4D2D1D2D68C5F301456D1C6B00B2FB2D
:100AF000F3F5124E356003E00F4D104E356000BF28
:100B000000BF064D08352D68C5F303150D4E705D09
:100B10000A4D2D68C540094E356070BD0038024051
:100B20000070004008544007003C024088ED00E09F
:100B3000FFFFF6FE103000240024F4000400002023
:100B400000127A0008000020094880470948004741
:100B5000FEE7FEE7FEE7FEE7FEE7FEE7FEE7FEE76D
:100B6000FEE7FEE704480549054A064B70470000CA
:100B7000170A00088901000808050020080B00205A
:100B8000080700200807002033490143334A116059
:100B9000704770B5002100230F22C47824B32F4C76
:100BA000246804F4E064C4F5E064C4F30721C1F1EF
:100BB0000404E3B20A4144789C40E1B284781440D2
:100BC00021430C07210E264C05786155047804F06A
:100BD0001F050124AC4005786D114FF0E02606EBAF
:100BE0008505C5F8004109E0047804F01F040125DB
:100BF000A5401C4C0678761144F8265070BD1A4A60
:100C00000A400243154B1B1F1A60704739B1134A43
:100C1000121D12680243114B1B1D1A6006E00F4A99
:100C2000121D126882430D4B1B1D1A607047042869
:100C300008D14FF0E021096941F004014FF0E022B2
:100C4000116107E04FF0E021096921F004014FF044
:100C5000E0221161704700000000FA050CED00E091
:100C600000E400E080E100E080FFFF1F10B50121FB
:100C7000080202F072FA00214FF4807002F06DFA5F
:100C800010BD30B50246002000235068F84C2040CB
:100C90000D790C6844EA0524204350609068F54CB7
:100CA0002040D1E903542C438D682C434D7944EA0C
:100CB000450420439060D06A20F470000C7D641ECF
:100CC000E4B2234340EA0350D06230BD002101600A
:100CD000017141718160C16001610121017570473D
:100CE0000021E54A1168E54A01EA0201D0E9002342
:100CF00042EA0302836842EA0302C36842EA03024B
:100D000042EA0101DE4AC2F8041370470021016083
:100D100041608160C160704721B1826842F0010288
:100D2000826003E0826822F00102826070470A4616
:100D300000214168D34B1940114341607047416223
:100D4000826270470A460021416821F01F01114369
:100D50004160704738B1C849096841F40001C84A88
:100D6000C2F8041306E0C449096821F40001C44A2A
:100D7000C2F80413704738B1BF49096841F48001D3
:100D8000BF4AC2F8041306E0BB49096821F4800198
:100D9000BB4AC2F804137047F0B504460D46002064
:100DA0000021092D11DDE068A5F10A0606EB4607D2
:100DB000072606FA07F18843A5F10A0606EB460660
:100DC00003FA06F10843E0600CE0206905EB4507F3
:100DD000072606FA07F1884305EB450603FA06F1F4
:100DE00008432061072A0FDA606B561E06EB860760
:100DF0001F2606FA07F18843561E06EB860605FAFB
:100E000006F10843606322E00D2A0FDA206BD61F3B
:100E100006EB86071F2606FA07F18843D61F06EB66
:100E2000860605FA06F10843206310E0E06AA2F1A5
:100E30000D0606EB86071F2606FA07F18843A2F186
:100E40000D0606EB860605FA06F10843E062F0BDE2
:100E5000816841F0804181607047014600208A68C6
:100E600012F0804F01D0012000E00020704721B136
:100E7000826842F48062826003E0826822F48062C9
:100E80008260704721B1826842F00202826003E012
:100E9000826822F002028260704710B50A46002183
:100EA0000023416821F46041531E41EA433141600F
:100EB00010BD21B1426842F40062426003E0426822
:100EC00022F40062426070470146C86C80B27047ED
:100ED0006D480068704721B1826842F48072826078
:100EE00003E0826822F480728260704721B18268D8
:100EF00042F40072826003E0826822F40072826031
:100F0000704738B15C49096841F400515C4AC2F845
:100F1000041306E05849096821F40051584AC2F800
:100F200004137047F0B50446154600200022002641
:100F3000092911DDE068A1F10A0707EB470C072733
:100F400007FA0CF29043A1F10A0707EB470703FAEF
:100F500007F21043E0600CE0206901EB410C072729
:100F600007FA0CF2904301EB410703FA07F2104332
:100F70002061A06BC0F30156EF1C06F1010CA7EB3A
:100F80000C0707EB870C1F2707FA0CF29043EF1CA6
:100F900006F1010CA7EB0C0707EB870701FA07F234
:100FA0001043A063F0BD10B50A4600210023816BF9
:100FB00021F44011531E41EA0351816310BD08B56D
:100FC000002300930090009B0B440093009B1A6049
:100FD00008BD0A460021816821F470211143816017
:100FE00070470A460021816821F440111143816055
:100FF0007047816841F4800181607047014600209C
:101000008A6812F4800F01D0012000E000207047B0
:1010100021B1426842F48062426003E0426822F4F7
:1010200080624260704721B1426842F4805242605F
:1010300003E0426822F480524260704708B50246DD
:1010400000200090009201F12800009B18440090BD
:101050000098006880B208BD10B50B460021D9B2D7
:10106000012404FA01F18AB144680C43446010E0A1
:10107000FFFEFFFCFDF7FFC004230140E030FCFF52
:1010800000200140FFFD3FFF0823014044688C43DE
:10109000446010BD0246002013680B4201D00120BD
:1010A00000E000207047CA430260704770B50246F6
:1010B0000020002300240B12556801268E4005EA0B
:1010C000060415681D4202D00CB1012000E000208A
:1010D00070BD00220A12D3430360704710B5044666
:1010E000FE48844209D10121480602F025F800217A
:1010F0004FF0007002F020F808E00121880602F0AD
:101100001BF800214FF0806002F016F810BD30B5DA
:10111000024600200023146824F0020414601468BE
:1011200044F00104146000E05B1C546814F0010FEB
:1011300003D1A3F57F44FF3CF6D1546814F0010FAE
:1011400001D100206CE08C79012C04D1146844F0AA
:101150008004146003E0146824F080041460CC79E7
:10116000012C04D1146844F04004146003E01468B6
:1011700024F0400414600C7A012C04D1146844F06B
:101180002004146003E0146824F0200414604C7AF6
:10119000012C04D1146844F01004146003E01468B6
:1011A00024F0100414608C7A012C04D1146844F0EB
:1011B0000804146003E0146824F008041460CC7A76
:1011C000012C04D1146844F00404146003E0146892
:1011D00024F0040414608C78A407CD7844EA0564F4
:1011E0000D7944EA05444D7944EA05540D886D1E95
:1011F0002C43D461146824F001041460002300E03F
:101200005B1C546814F0010F03D0A3F57F44FF3C2E
:10121000F6D1546814F0010F01D0002000E0012045
:1012200030BD10B50021837A012202FA03F1AC4AE5
:10123000126842F00102AA4B1A60A94A1C321268D5
:101240008A43A74B1C331A60027BCAB9A44A0C32EA
:1012500012688A43A24B0C331A604288C38842EA60
:1012600003439F4A4032847A42F8343002888388AC
:1012700042EA03439A4A4032847A02EBC402536042
:10128000027B012A19D1964A0C3212680A43944B08
:101290000C331A604288038842EA0343904A403282
:1012A000847A42F83430C288838842EA03438C4A05
:1012B0004032847A02EBC4025360C27A3AB9884A57
:1012C000121D12688A43864B1B1D1A6006E0844A71
:1012D000121D12680A43824B1B1D1A60028932B923
:1012E0007F4A143212688A437D4B14331A60028994
:1012F000012A06D17A4A143212680A43784B143311
:101300001A60427B012A06D1754A1C3212680A43D0
:10131000734B1C331A60724A126822F00102704B40
:101320001A6010BD00218171C17101724172817218
:10133000C1728170C17003210171022141710121CB
:10134000018070476649096841F00101644A1160F3
:101350001146096843F60E729143614A11601146C5
:10136000096841EA002111601146096821F0010174
:101370001160704721B1026842F48032026003E0DC
:10138000026822F4803202607047E1B1026842F0E4
:10139000800202604FF4C272125842F480734FF41C
:1013A000C27213504FF4CA72125842F480734FF451
:1013B000CA7213504FF4D272125842F480734FF431
:1013C000D27213501BE0026822F0800202604FF4D8
:1013D000C272125822F480734FF4C27213504FF449
:1013E000CA72125822F480734FF4CA7213504FF429
:1013F000D272125822F480734FF4D2721350704795
:1014000010B502460020936803F08063B3F1806F4B
:1014100000D110E0936803F00063B3F1006F01D1D5
:10142000012008E0936803F08053B3F1805F01D19D
:10143000022000E00420042879D002F5C07303EBF9
:1014400000131B6803F0010402F5C07303EB0013E3
:101450001C600B7A7BB94B7A0C8843EA445302F543
:10146000C07404EB00142468234302F5C07404EB39
:101470000014236010E00B7A4C6843EAC4034C7AF2
:10148000234302F5C07404EB00142468234302F5DF
:10149000C07404EB001423608B7A03F00F038B728B
:1014A00002F5C07303EB00135B6823F00F0402F531
:1014B000C07303EB00135C6002F5C07303EB001311
:1014C0005B688C7A234302F5C07404EB00146360FC
:1014D0008B7B1C064B7B44EA034403E00064004022
:1014E000006600400B7B44EA0323CC7A234302F5D9
:1014F000C07404EB0014A3608B7C1C064B7C44EA94
:1015000003440B7C44EA0323CC7B234302F5C074E1
:1015100004EB0014E36002F5C07303EB00131B68D7
:1015200043F0010402F5C07303EB00131C6010BD0F
:1015300010B50246002021B1012907D002290FD1A0
:1015400009E09368F74C03EA04000BE09368F64C5B
:1015500003EA040006E09368F44C03EA040001E0A7
:10156000002000BF00BFF24C031BA04216D007DCD6
:1015700080B16FF08063C3180ED0022B18D111E038
:10158000B3F5007F10D0EB4C1B1909D0B3F5003F29
:101590000ED10BE002200DE000200BE0002009E05E
:1015A000002007E0012005E0012003E0012001E028
:1015B000002000BF00BF10BD21B1012907D00229C2
:1015C0000FD109E0826842F0800282600AE08268FE
:1015D00042F40042826005E0826842F400028260C8
:1015E00000E000BF00BF704710B500F5D87303EBF3
:1015F00001131B6803F004031372137A53B900F547
:10160000D87303EB01131B6840F2FF7404EA5353D1
:10161000136009E000F5D87303EB01131B686FF04A
:10162000604404EAD303536000F5D87303EB01135D
:101630001B6803F00203537200F5D87303EB011328
:101640005B6803F00F03937200F5D87303EB01138B
:101650005B681B0AD37400F5D87303EB01139B6816
:10166000D37200F5D87303EB01139B681C0A147343
:1016700000F5D87303EB01139B681C0C547300F541
:10168000D87303EB01139B681B0E937300F5D8739B
:1016900003EB0113DB68D37300F5D87303EB01137D
:1016A000DB681C0A147400F5D87303EB0113DB68C4
:1016B0001C0C547400F5D87303EB0113DB681B0E8C
:1016C000937421B9C36843F02003C36003E0036946
:1016D00043F02003036110BD21B9C26842F020022B
:1016E000C26003E0026942F02002026170470246D4
:1016F000002019B9D36803F0030006E0012903D1E3
:10170000136903F0030000E00020704710B50246A3
:101710000B4600204FF6FF71BBB9146824F0020499
:1017200044F00104146000E0491E546804F003040E
:10173000012C01D00029F7D1546804F00304012CD6
:1017400001D0002032E0012030E0012B13D11468D9
:1017500024F00304146000E0491E546814F0030FE1
:1017600001D00029F8D1546814F0030F01D00020F3
:101770001CE001201AE0022B17D1146824F00104A8
:1017800044F00204146000E0491E546804F00304AD
:10179000022C01D00029F7D1546804F00304022C74
:1017A00001D0002002E0012000E0002010BD014631
:1017B00000200A6822F0010242F002020A604A6830
:1017C00002F00302022A00D10120704701464FF6C1
:1017D000FF7200200B6823F002030B6000E0521E32
:1017E0004B6803F00203022B01D1002AF7D14B68AA
:1017F00003F00203022B00D00120704701460020B5
:101800008A6902F070007047014600208A69100E54
:101810007047014600208A69C2F3074070471AB139
:1018200043690B43436102E043698B434361704763
:1018300010B50246002011F4700F08D09369C1F36F
:101840001304234201D001202DE000202BE011F0F1
:10185000807F08D05368C1F31304234201D00120D4
:1018600021E000201FE011F0006F08D09368C1F361
:101870001304234201D0012015E0002013E011F0F1
:10188000007F08D0D368C1F31304234201D00120A4
:1018900009E0002007E01369C1F31304234201D0DB
:1018A000012000E0002010BD0022234B994202D10C
:1018B0000023836111E0C1F3130211F0007F01D016
:1018C000C2600AE011F0806F01D0026105E011F002
:1018D000006F01D0826000E0426070470246002045
:1018E0000A4201D0012000E00020704770B5044694
:1018F0000D4600266069284271D0B5F5807F68D01A
:101900001CDC082D41D006DC012D2CD0022D30D05E
:10191000042D7ED133E0102D3DD0202D41D0402D1F
:1019200077D144E003000004000300080000031026
:10193000000100080001FFF77000F030B5F5004F1E
:1019400061D009DCB5F5007F4AD0B5F5806F4DD088
:10195000B5F5006F5DD150E0B5F5803F2DD0B5F500
:10196000003F56D12FE0A0685549FFF7B7FF064664
:1019700051E0E0680321FFF7B1FF06464BE0E06865
:101980000821FFF7ABFF064645E0E0681021FFF7AE
:10199000A5FF06463FE020690321FFF79FFF0646AB
:1019A00039E020690821FFF799FF064633E02069F6
:1019B0001021FFF793FF06462DE060680821FFF72E
:1019C0008DFF064627E060681021FFF787FF064677
:1019D00021E0A0690121FFF781FF06461BE01BE023
:1019E000A0690221FFF77AFF064614E0A0690421EE
:1019F000FFF774FF06460EE00BE0A0697021FFF7C9
:101A00006DFF064607E060680421FFF767FF0646A2
:101A100001E0002600BF00E00026304670BDB1F5B1
:101A2000007F3AD00FDC202928D006DC01291CD009
:101A300004291DD0082940D11DE0402921D0B1F54D
:101A4000807F3AD126E0B1F5004F31D006DCB1F508
:101A5000806F25D0B1F5006F2FD124E0B1F5803F24
:101A600012D0B1F5003F28D111E0154A826025E07F
:101A70000822C26022E01022C2601FE00822026138
:101A80001CE01022026119E00822426016E01022D8
:101A9000426013E00422426010E0042242600DE044
:101AA000042242600AE0002282610422426005E0D2
:101AB000002282610422426000E000BF00BF704744
:101AC00001010100002041490860091D0860091D4D
:101AD0000860091D08603E483C49143108607047A1
:101AE00000213A498279002A3AD00A4612680368EE
:101AF0009A430B461A600A1D126803689A430B1D2D
:101B00001A60027911440A6803681A430A602F4A6E
:101B10000832126803689A432C4B08331A601A1D66
:101B2000126803689A43294B0C331A604279102AD1
:101B30000ED11A1F126803681A43244B08331A6027
:101B40001A1D126803681A43204B0C331A600DE00B
:101B50001E49427911440A6803681A430A6005E085
:101B6000027911440A6803689A430A6070470021A9
:101B7000016001710C21417100218171704713498D
:101B8000103109680143114A103211607047014653
:101B900000200E4A143212680A4201D0012000E0EF
:101BA0000020704709491431086070470146002041
:101BB000064A143212680A4201D0012000E00020D7
:101BC000704702491431086070470000003C014032
:101BD000FFFF7F00FE4A1070704730B1FC49096872
:101BE00041F48071FA4A116005E0F949096821F46D
:101BF0008071F74A1160704730B1F549096841F4C6
:101C00000071F34A116005E0F149096821F400719F
:101C1000EF4A1160704730B1ED49096841F48061C5
:101C2000EB4A116005E0EA49096821F48061E84A5D
:101C300011607047E648006840F40060E4490860BD
:101C40007047E348006840F48050E14908607047FD
:101C5000DF481030006810F0004F05D0DD48DC4947
:101C6000091D0860DC4808607047D94810300068DA
:101C700040F00040D6491031086070470920D4492F
:101C80000C31096801F48031B1F5803F01D10120A8
:101C900020E0CF490C31096811F0100F01D0062067
:101CA00018E0CB490C31096811F4807F01D0022083
:101CB00010E0C7490C31096811F0EF0F01D007207F
:101CC00008E0C3490C31096811F0020F01D0082067
:101CD00000E00920704708B509200090FFF7CEFF0B
:101CE000009002E0FFF7CAFF00909DF80000012875
:101CF000F8D09DF8000008BD70B504460A460026DD
:101D0000092502B909E0012A01D1160205E0022ADB
:101D100001D1160201E04FF44076FFF7DCFF0546E3
:101D2000092D2DD1AA481030006820F44070A84930
:101D300010310860084600683043086008460068B3
:101D400020F0F80008600846006844F002010843EB
:101D50009F49103108600846006840F480300860F0
:101D6000FFF7B9FF05469A481030006820F00200DE
:101D70009749103108600846006820F0F8000860B4
:101D8000284670BD30B5024600250924FFF7A3FFA1
:101D9000044602B909E0012A01D1150205E0022A30
:101DA00001D1150201E04FF44075092C20D188487B
:101DB0001030006820F440708549103108600846F2
:101DC0000068284308600846006840F00400086086
:101DD0000846006840F480300860FFF77CFF044646
:101DE0007B481030006820F0040079491031086009
:101DF000204630BD30B5024600250924FFF76BFFB1
:101E0000044602B909E0012A01D1150205E0022ABF
:101E100001D1150201E04FF44075092C20D16C4826
:101E20001030006820F4407069491031086008469D
:101E30000068284308600846006840F00400086015
:101E40000846006840F480300860FFF744FF04460D
:101E50005F481030006820F004005D4910310860D0
:101E6000204630BD30B5024600250924FFF733FF78
:101E7000044602B909E0012A01D1150205E0022A4F
:101E800001D1150201E04FF44075092C20D15048D2
:101E90001030006820F440704D4910310860084649
:101EA0000068284308600846006840F40040086065
:101EB0000846006840F480300860FFF70CFF0446D5
:101EC00043481030006820F4004041491031086058
:101ED000204630BD70B5064614461D464FF0090237
:101EE000FFF7F9FE0246092A1ED139481030006872
:101EF00020F440703649103108600846006840F40C
:101F0000407008600846006840F0010008603460D6
:101F10007560FFF7E0FE02462D481030006820F0A3
:101F200001002B4910310860104670BD30B50246E3
:101F30000C460925FFF7CFFE0546092D1DD1244883
:101F40001030006820F440702149103108600846C4
:101F5000006840F4007008600846006840F0010026
:101F600008601460FFF7B7FE054619481030006896
:101F700020F00100164910310860284630BD30B508
:101F800002460C460925FFF7A6FE0546092D1DD180
:101F90000F481030006820F440700D49103108607F
:101FA0000846006840F4807008600846006840F009
:101FB000010008601480FFF78EFE054604481030CB
:101FC000006820F00100024910310860284630BD49
:101FD000003C024023016745AB89EFCD30B5024696
:101FE0000C460925FFF777FE0546092D17D19B48BA
:101FF000006820F44070994908600846006808604D
:102000000846006840F0010008601470FFF763FEA6
:1020100005469248006820F0010090490860284673
:1020200030BD8E48001D006810F0010F05D08C48AF
:102030008A49083908608B48086070478748001D46
:10204000006840F001008549091D0860704730B5FF
:1020500002460C460925FFF73EFE0546092D10D124
:102060003CB17E48801D008890437C49891D0880D2
:1020700007E07A48801D008891B208437749891D9E
:10208000088030BD30B502460C460925FFF723FE17
:102090000546092D10D13CB170480A3000889043A4
:1020A0006E490A31088007E06C480A30008891B216
:1020B00008436A490A31088030BDFF21674AD21DB2
:1020C000127802F07F0140EA0102644BDB1D1A70B6
:1020D000704730B502460C460925FFF7FCFD054662
:1020E000092D10D144B15D48801D008891B208438C
:1020F0005A49891D088006E05848801D0088904391
:102100005649891D088030BD30B502460C46092568
:10211000FFF7E1FD0546092D10D144B14F480A30C3
:10212000008891B208434D490A31088006E04B48C7
:102130000A300088904349490A31088030BD10B503
:1021400002460924FFF7C7FD0446092C02D1434883
:10215000401D027010BDF0B504460D46FF2609274C
:10216000FFF7B9FD0746092F0BD13C48001D007849
:1021700000F00F0645EA0600104320433749091DC9
:102180000870F0BD3549091D097821F01001334A66
:10219000121D1170114609780143117070472F49C3
:1021A000091D097821F00C012C4A121D11701146ED
:1021B000097801431170704700B509222748001DB6
:1021C000007840F002002549091D0870FFF783FDE3
:1021D0000246104600BD2148001D0068C0F34710AC
:1021E00070471E48801D008870471C480A300088D0
:1021F00070471A48801D0088704718480A300088C8
:10220000704700201549491D0978AA2901D00120ED
:1022100000E0002070471148001D007800F00C001D
:10222000704729B10D4A126802430C4B1A6004E052
:102230000A4A12688243094B1A607047014600201F
:10224000064A121F12680A4201D0012000E0002055
:1022500070470249091F086070470000103C0240A7
:102260003B2A19087F6E5D4C30B943F2DB014FF019
:10227000204242F8201005E043F2D2014FF0204204
:1022800042F820106FF07042411C4FF0204343F899
:10229000212011461A4602EB8002C2F80411704751
:1022A000D0E901121143C268114302691143426926
:1022B000114382691143C2691143026A1143426AA0
:1022C0001143826A1143C26A1143026B11434FF0FA
:1022D0002043026843F822108168082908D11A4671
:1022E000016852F8211041F04001026843F82210C1
:1022F000416B0968426B526841EA0211426B926875
:1023000041EA0221426B928941EA0241426B128A00
:1023100041EA0251426B127D41EA0261426B9269CD
:1023200011430268521C4FF0204343F82210C16A47
:10233000B1F5804F1AD1816B0968826B526841EA0E
:102340000211826B926841EA0221826B128A41EA91
:102350000251826B127D41EA0261826B92691143E4
:10236000026803EB8202C2F8041108E06FF07041CA
:102370004FF02043026803EB8202C2F80411704759
:10238000002101600221416000218160C160016182
:1023900041618161C16101624FF480514162490034
:1023A00081620021C1620163F84941638163704722
:1023B00051B14FF0204252F8202042F001024FF07C
:1023C000204343F8202009E04FF0204252F820201B
:1023D000EF4B1A404FF0204343F82020704710285D
:1023E0000AD118214FF020421166402151664FF06A
:1023F000FC319166D16610E01821E64A11604FF079
:1024000040014FF02042C2F884104FF0FC31E24A04
:1024100011604FF02042C2F88C10704730B5002197
:1024200000220023446844F0080485682C43C568F2
:102430002C4305692C43456944EA4524856944EAEF
:102440004531C4692468C5696D6844EA0524C569D5
:102450002D8944EA0544C5692D7B44EA0562046A76
:102460002468056A6D6844EA0524056A2D8944EAF2
:102470000544056A2D7B44EA05630468102C05D1E8
:102480004FF020442166A266E36607E0C14C21605C
:102490004FF02044C4F88820C04C236030BD102188
:1024A0000160002141608160C16001614161816121
:1024B000FC21C2691160C2695160C2699160C26940
:1024C000D160026A1160026A5160026A9160026A18
:1024D000D160704799B1102808D14FF02042126E98
:1024E00042F004024FF020431A661DE0A94A126828
:1024F00042F004024FF02043C3F8802014E010287B
:1025000009D14FF02042126EA14BDB1E1A404FF052
:1025100020431A6608E09F4A1268A14B02EA0302B0
:102520004FF02043C3F88020704799B1102808D19C
:102530004FF02042126E42F040024FF020431A66E4
:102540001DE0944A126842F040024FF02043C3F865
:10255000802014E0102809D14FF02042126E904BD9
:102560003C3B1A404FF020431A6608E0894A126843
:102570008C4B02EA03024FF02043C3F880207047DF
:1025800001460020102903D14FF02042506F01E096
:10259000854A106870471820844908604FF0000091
:1025A0004FF02041C1F8A4004FF0FC308049086092
:1025B00001F10401086001F104010860704701683D
:1025C00041F01001426841EA4221826841EA423109
:1025D000764A1160C1680968C268526841EA0221FE
:1025E000C268128941EA0241C268127B41EA026173
:1025F0006F4A1160016909680269526841EA022163
:102600000269128941EA02410269127B41EA0261D0
:10261000684A1160416909684269526841EA0221C9
:102620004269128941EA02414269127B41EA026130
:102630004FF02042C2F8B0107047002101604160A5
:102640008160FC21C2681160C2685160C2689160FB
:10265000C268D160026911600269516002699160CB
:102660000269D160426911604269516042699160BA
:102670004269D160704740B14C49096841F004019A
:102680004FF02042C2F8A01008E048490968444AC7
:1026900001EA02014FF02042C2F8A010704710B5C5
:1026A000F2B1102807D14FF020435B6E0B434FF07F
:1026B0002044636632E0B0F5807F08D13E4B1B6852
:1026C00043EA01034FF02044C4F8843026E03B4B3A
:1026D0001B6843EA01034FF02044C4F8A4301DE016
:1026E000102807D14FF020435B6E8B434FF02044FE
:1026F000636613E0B0F5807F08D12F4B1B6823EA97
:1027000001034FF02044C4F8843007E02B4B1B68D2
:1027100023EA01034FF02044C4F8A43010BD10B5E3
:10272000024600200023102A03D14FF02044636E9C
:1027300007E0B2F5807F02D11F4C236801E01F4CF7
:1027400023680B4201D0012000E0002010BD1028BA
:1027500007D14FF02042526E8A434FF020435A6611
:1027600013E0B0F5807F08D1134A126822EA010213
:102770004FF02043C3F8842007E0104A126822EA91
:1027800001024FF02043C3F8A4207047ACFE0008BC
:10279000FEFF0F00800000A0880000A08C0000A0B9
:1027A000FBFF0F00BFFF0F00940000A0A00000A0DF
:1027B000A80000A0AC0000A0840000A0A40000A01D
:1027C00070B502460020002300240025102A03D102
:1027D0004FF02046736E07E0B2F5807F02D1174EAE
:1027E000336801E0164E336803EA010403EAD105B9
:1027F00014B10DB1012000E0002070BD102808D1F7
:102800004FF02042526E22EAD1024FF020435A6626
:1028100013E0B0F5807F08D1084A126822EAD1029D
:102820004FF02043C3F8842007E0054A126822EAEB
:10283000D1024FF02043C3F8A4207047840000A0C9
:10284000A40000A010B504469848844208D1012194
:10285000084600F03EFC0021012000F03AFC76E042
:102860009348844208D10121022000F032FC00216B
:10287000022000F02EFC6AE08E48844208D101213B
:10288000042000F026FC0021042000F022FC5EE081
:102890008948844208D10121082000F01AFC002157
:1028A000082000F016FC52E08448844208D101213F
:1028B000102000F00EFC0021102000F00AFC46E081
:1028C0007F48844208D10121202000F002FC002131
:1028D000202000F0FEFB3AE07A48844208D1012132
:1028E000402000F0F6FB0021402000F0F2FB2EE03B
:1028F0007548844208D10121802000F0EAFB0021C4
:10290000802000F0E6FB22E07048844208D10121DB
:10291000801500F0DEFB0021A01500F0DAFB16E0C8
:102920006B48844208D10121401500F0D2FB002100
:10293000601500F0CEFB0AE06648844207D1012111
:10294000001500F0C6FB0021201500F0C2FB10BDF1
:10295000F0B50A4600210023002400BF3DE0012518
:1029600005FA01F3156805EA03049C4234D10568B1
:102970004F000326BE40B543056015794E00B540B3
:102980000668354305601579012D02D01579022DB1
:1029900016D185684F000326BE40B5438560557942
:1029A0004E00B540866835438560456801268E40F7
:1029B000B5434560456896798E40B6B2354345606B
:1029C000C5684F000326BE40B543C560D5794E00AB
:1029D000B540C6683543C560491C1029BFD3F0BD5A
:1029E0004FF6FF7101600021017141718171C17168
:1029F000704708B54FF480320092009A0A43009263
:102A0000009AC261C161009AC261C2690092C26942
:102A1000009208BD0246002013690B4201D001203C
:102A200000E0002070470146086980B27047024606
:102A3000002053690B4201D0012000E000207047C4
:102A40000146486980B270470183704741837047EF
:102A50000AB1018300E041837047416170474269D8
:102A60004A4042617047F0B5002300244D07ED0E47
:102A700002FA05F3CE1000F1200555F826504E0756
:102A8000F70E0F26BE40B543CF1000F1200646F8E2
:102A90002750CE1000F1200555F8265045EA0304D2
:102AA000CE1000F1200545F82640F0BD00000240A0
:102AB0000004024000080240000C024000100240E6
:102AC0000014024000180240001C02400020024096
:102AD000002402400028024010B50121080700F040
:102AE0002BFB00214FF0805000F026FB10BD514918
:102AF00008627047014600204F4A106820F0E0004D
:102B00000843106070474B49086170474B490860A3
:102B100070474B490860704701460020464A1068DC
:102B200020F44040084310607047424908647047F1
:102B300040494864704730B13F49096841F4402139
:102B40003D4A116005E03C49096821F440213A4AB8
:102B50001160704718B10121364AD16202E00021AC
:102B6000344AD162704718B10121324A916202E0C1
:102B70000021304A916270472E494862704710B573
:102B8000024600202C4B186840F60343984310433C
:102B9000294B18602B4B1B6843F00403294C23601E
:102BA000012901D130BF00E020BF264B1B6823F074
:102BB0000403244C236010BD10B5024600201E4BB8
:102BC000186840F60343984310431B4B18601D4B95
:102BD0001B6843F004031B4C2360012901D130BF63
:102BE00000E020BF174B1B6823F00403154C236043
:102BF00010BD1148006840F002000F4908601148FC
:102C0000006840F004000F49086000BF00BF30BFFB
:102C1000704701460020084A52680A4201D001204C
:102C200000E0002070470449096841EA8001024A37
:102C30001160704700000E4200700040A0000E427C
:102C4000A4000E4210ED00E0F948006840F00100D9
:102C5000F74908600020F64908310860F448006828
:102C6000F4490840F2490860F348091D0860F34838
:102C7000EF4984310860F0481038091D0860EC48BD
:102C8000006820F48020EA4908600020E8490C31FF
:102C90000860E7498C31086070470021E44A921CC3
:102CA000117011460870704710B5014600220023CC
:102CB00000204A11012A02D1DD4C236808E0022AD3
:102CC00003D1DB4C7034236802E0D94C74342368A0
:102CD00001F01F02012494401C4201D0012000E0B9
:102CE000002010BD38B5002000900024002500BF52
:102CF0003120FFF7D9FF05460098401C009000984E
:102D0000B0F5A04F01D0002DF2D03120FFF7CCFF5D
:102D100008B1012400E00024204638BD014600200F
:102D2000C34A106820F0F80040EAC1001060704704
:102D3000C349086070470021BD4A7032117011709C
:102D4000012802D004280AD104E00121B84A7032D7
:102D5000117005E00521B64A7032117000E000BF25
:102D600000BF7047B7490860704770B5049C41EADE
:102D700082150126C6EB530645EA0645054345EA9A
:102D80000465AB4E361D356070BDAD4908667047B1
:102D9000820142EA0172A64B84331A607047A84947
:102DA0008866704710B5830143EA016343EA027302
:102DB0009F4C8834236010BDA14908677047A04923
:102DC000C864704702460020994B0833186820F009
:102DD000EC6042EA01031843954B083318607047D2
:102DE00002460020924B0833186820F0784042EAEF
:102DF000010318438E4B08331860704701460020CA
:102E00008B4A0832106820F00300084310607047B6
:102E100087480830006800F00C0070470146002029
:102E2000834A0832106820F0F000084310607047B1
:102E3000014600207E4A0832106820F4E050084322
:102E40001060704701460020794A0832106820F46B
:102E5000604040EAC10010607047F0B500210022D8
:102E60000024022500260223714F08373F6807F02F
:102E70000C0121B1042905D0082937D105E0724F92
:102E8000076036E0714F076033E0694F3F1D3F68D0
:102E9000C7F38056664F3F1D3F6807F03F036EB192
:102EA0006A4FB7FBF3F7DFF888C10CF1040CDCF8CC
:102EB00000C0CCF3881C07FB0CF40CE0624FB7FB9E
:102EC000F3F7DFF86CC10CF1040CDCF800C0CCF3B4
:102ED000881C07FB0CF4564F3F1D3F68C7F30147A2
:102EE0007F1C7D00B4FBF5F7076002E0564F0760DA
:102EF00000BF00BF4E4F08373F6807F0F0010909D7
:102F0000534F7A5C0768D7404760494F08373F689E
:102F100007F4E051890A4E4F7A5C4768D7408760D2
:102F2000434F08373F6807F46041490B484F7A5CCC
:102F30004768D740C760F0BD002100F44072B2F589
:102F4000407F0AD13A4A0832116821F4F811414A07
:102F500002401143364A08321160354A7032126815
:102F6000C0F30B031A43324B70331A607047354974
:102F70004439086070473349403908607047364922
:102F80000860704701460020294A8C32106820F002
:102F90001F004A1E1043264A8C32106070470146BB
:102FA0000020234A8C32106820F4F8504A1E40EA70
:102FB00002201F4A8C3210607047014600201C4AD4
:102FC0008C32106820F440100843106070470146AE
:102FD0000020174A8C32106820F44000084310602B
:102FE000704701460020124A8C32106820F44030AD
:102FF00008431060704719490860704739B10C4A9E
:103000003032126802430A4B30331A6006E0084A35
:10301000303212688243064B30331A607047F9B180
:10302000034A343212680243014B34331A601CE005
:1030300000380240FFFFF6EA103000240030002084
:1030400000004742800E47420024F40000127A003C
:1030500018000020FFFCFF0F5C014742E0114742CF
:103060008F4A126882438E4B1A60704739B18C4A7E
:10307000121D126802438A4B1B1D1A6006E0884A23
:10308000121D12688243864B1B1D1A60704739B1AE
:10309000834A0C3212680243814B0C331A6006E0FB
:1030A0007F4A0C32126882437D4B0C331A607047A2
:1030B00039B17B4A103212680243794B10331A60DF
:1030C00006E0774A103212688243754B10331A605B
:1030D000704739B1724A243A12680243704B243B5C
:1030E0001A6006E06E4A243A126882436C4B243B15
:1030F0001A60704739B16A4A203A12680243684B35
:10310000203B1A6006E0664A203A12688243644B0C
:10311000203B1A60704739B1614A1C3A1268024379
:103120005F4B1C3B1A6006E05D4A1C3A1268824302
:103130005B4B1C3B1A60704739B1594A143A12680C
:103140000243574B143B1A6006E0554A143A126882
:103150008243534B143B1A60704739B1504A103ABE
:10316000126802434E4B103B1A6006E04C4A103A7C
:10317000126882434A4B103B1A60704739B1484A83
:103180001C3212680243464B1C331A6006E0444A64
:103190001C3212688243424B1C331A60704739B1AB
:1031A0003F4A2032126802433D4B20331A6006E04A
:1031B0003B4A203212688243394B20331A607047F1
:1031C00039B1374A243212680243354B24331A602E
:1031D00006E0334A243212688243314B24331A60AA
:1031E000704739B12E4A2C32126802432C4B2C33D3
:1031F0001A6006E02A4A2C3212688243284B2C338C
:103200001A60704739B1264A303212680243244BA3
:1032100030331A6006E0224A303212688243204B73
:1032200030331A607047012808D11D493C310968C4
:1032300041F008011A4A3C32116007E018493C315C
:10324000096821F00801164A3C321160704739B113
:10325000134A273A12780243114B273B1A7006E0B3
:103260000F4A273A127882430D4B273B1A7070475A
:103270000B484030006840F08070094940310860D8
:10328000704701460020064A283A12680A4201D0D7
:10329000012000E00020704701492639087070477E
:1032A0003438024010B501214020FFF723FF0021F0
:1032B0004020FFF71FFF10BD30B12149096841F0E0
:1032C00004011F4A116005E01D49096821F004014D
:1032D0001B4A116070471A4808300068704730B1C7
:1032E0001749096841F00801154A116005E01449C1
:1032F000096821F00801124A116070470146002058
:103300000F4A121D12680A4201D0012000E000207D
:1033100070476FEA00110A4A121D1160704701469A
:103320000020074A121D12680A4201D0012000E065
:1033300000207047C143C9B2014A121D1160704795
:103340000008065008B50022009200200021CA2281
:10335000F94B1A6053221A60F74A183A126822F0A1
:10336000A002F54B183B1A6000BFF34A183A1268E6
:1033700002F02001009A521C0092009AB2F5003F20
:1033800001D00029F1D0EC4A183A126812F0200F4F
:1033900001D0012000E00020FF22E74B1A6008BDA9
:1033A00008B50022009200200021E34A183A126872
:1033B00012F0400F1CD1421EDF4B183B1A6000BFB9
:1033C000DD4A183A126802F04001009A521C00923D
:1033D000009AB2F5803F01D00029F1D0D64A183AC0
:1033E000126812F0400F01D0012002E0002000E03E
:1033F000012008BD38B50020009000240025CA2017
:10340000CD49086053200860FFF7CAFF00B952E0B9
:103410000020C9492439086042F20110091D0860E2
:10342000081D006800F00700091D086000BFC248C1
:103430001838006800F004040098401C00900098C0
:10344000B0F5803F01D0002CF1D0BB48183800689F
:1034500010F0040F01D100252DE0B7481C3800689A
:103460000020B5491C3908604FF6FF70B249103989
:103470000860B248091F08600020AF490C39086095
:10348000091D0860091D0860AB4908310860AA4998
:1034900018310860A84920310860091D0860A64954
:1034A00018390860A4491C310860FFF74BFF08B9C0
:1034B000002500E00125FF209F490860284638BD0F
:1034C0009D481838006820F080009B491839086032
:1034D000704730B504460025CA209749086053203C
:1034E0000860FFF75DFF00B91DE093481C380068D5
:1034F00020F0400090491C390860084600682168A7
:1035000008438D491C3908608B491439A06808604C
:1035100008460068A18840EA0140874914390860DC
:10352000FFF7CEFF0125FF2083490860284630BD04
:10353000002101607F214160FF218160704718B147
:10354000FF217D4A116004E0CA217B4A11605321AA
:103550001160704730B504460025CA2076490860DE
:1035600053200860FFF71CFF00B914E044B1724813
:103570001C38006840F010006F491C39086007E0F3
:103580006D481C38006820F010006B491C39086039
:10359000FFF796FF0125FF2067490860284630BDE8
:1035A000CA21654A11605321116040B162491C393A
:1035B000096841F02001604A1C3A116007E05E4949
:1035C0001C39096801F0DF015B4A1C3A1160FF21D8
:1035D000594A116070470146002204E0501CC2B2F3
:1035E000A1F10A00C1B20A29F8DA100741EA106015
:1035F0007047014600BF080900EB8000420001F05F
:103600000F001044C0B270472DE9F04105460C464A
:103610000026002755B948481C38006810F0400FB4
:1036200000D002E00020E07000BF0EE042481C38ED
:10363000006810F0400F04D02078FFF7DAFF06464C
:1036400002E00020E07000BF00BF55B12078000408
:10365000617840EA0120A1780843E17840EA014618
:1036600011E02078FFF7B7FF4FEA00486078FFF7D6
:10367000B2FF48EA0028A078FFF7ADFF48EA00084B
:10368000E07848EA0046CA202B49086053200860C9
:10369000FFF786FE08B9002714E029483040264984
:1036A00024390860FFF70CFF23481C38006810F02D
:1036B000200F06D1FFF746FE08B9002702E00127D8
:1036C00000E00127FF201C4908603846BDE8F08172
:1036D0000021C170017041708170704770B506465D
:1036E0000C460025144824380068154900EA0105F5
:1036F000C5F305402070C5F30620607005F07F001B
:10370000A07005F48000000CE0705EB92078FFF72F
:1037100070FF20706078FFF76CFF6070A078FFF793
:1037200068FFA07070BD00200349091D08680249A8
:10373000203909687047000024280040FF007F00FE
:103740007F7F7F002DE9F04105460C4600260027CB
:103750004DB9607800F01000102804D1607820F096
:1037600010000A30607005B908E06078FFF741FF8B
:103770000646A078FFF73DFF064600BF55B1E0784A
:103780000004617840EA0120A1780843217840EAEA
:10379000413611E0E078FFF71EFF4FEA00486078FD
:1037A000FFF719FF48EA0028A078FFF714FF48EA5E
:1037B0000008207848EA4036CA20FE4908605320B5
:1037C0000860FFF7EDFD08B9002714E0FA48304023
:1037D000F84920390860FFF773FEF6481C38006886
:1037E00010F0200F06D1FFF7ADFD08B9002702E069
:1037F000012700E00127FF20EE4908603846BDE8B8
:10380000F08101210170817041700021C170704709
:1038100070B506460C460025E64820380068E649A3
:1038200000EA0105280CE070C5F30420607005F083
:103830003F00A070C5F3423020705EB9E078FFF71A
:10384000D8FEE0706078FFF7D4FE6070A078FFF7D4
:10385000D0FEA07070BD2DE9F04105460E4614461D
:1038600000276DB9D3481C38006810F0400F00D015
:1038700002E00020E07000BFA06800B91AE019E083
:10388000CC481C38006810F0400F04D02078FFF7B7
:10389000B0FE074602E00020E07000BFA06820B93B
:1038A000207BFFF7A6FE074604E0207BFFF7A1FE82
:1038B000074600BF95B120780004617840EA0120F6
:1038C000A1780843E17840EA0140217B40EA0160A9
:1038D000A1680843616840EA01071BE02078FFF710
:1038E0007AFE4FEA00486078FFF775FE48EA002844
:1038F000A078FFF770FE48EA0008E07848EA004840
:10390000207BFFF768FE48EA0060A1680843616811
:1039100040EA0107CA20A749086053200860B6F5AD
:10392000807F03D1A3480838076002E0A148001F48
:103930000760FF209F490860BDE8F0810021C17049
:10394000017041708170816001210173002141602B
:1039500070472DE9F04106460F4614460025B7F59D
:10396000807F03D193480838056802E09148001F22
:103970000568C5F305402070C5F30620607005F0AA
:103980007F00A07005F48000000CE070C5F30560B6
:10399000207305F08040A06005F0803060607EB943
:1039A0002078FFF726FE20706078FFF722FE607017
:1039B000A078FFF71EFEA070207BFFF71AFE207391
:1039C000BDE8F08138B502460024009400230020B1
:1039D000CA24784D2C6053242C6041B1754C1C3C9A
:1039E00024681443734D1C3D2C6001201EE0714C73
:1039F0001C3C246894436F4D1C3D2C6000BF6D4CF3
:103A0000183C246804EA1223009C641C0094009C67
:103A1000B4F5803F01D0002BF1D0664C183C2468EF
:103A200014EA122F01D1002000E00120FF24614D93
:103A30002C6038BD30B50023CA245E4D2C60532461
:103A40002C6041EA0203B0F5807F03D1594C203449
:103A5000236002E0574C24342360FF24554D2C6032
:103A600030BD01460020B1F5807F05D1514A20329A
:103A70001268C2F30E0004E04E4A24321268C2F308
:103A80000E007047CA214B4A116053211160494909
:103A90001C39096821F00701464A1C3A1160114699
:103AA000096801431160FF21424A11607047CA2131
:103AB000404A1160532111603E4910390860FF21CE
:103AC000116070473B481038006880B2704718B5E5
:103AD00001460023009300220020CA23354C2360B6
:103AE0005323236049B1334B1C3B1B6843F4806371
:103AF000304C1C3C236001201FE02E4B1C3B1B68FC
:103B000023F480632B4C1C3C236000BF294B183BE3
:103B10001B6803F00402009B5B1C0093009BB3F541
:103B2000803F01D0002AF1D0224B183B1B6813F0D4
:103B3000040F01D1002000E00120FF231D4C236071
:103B400018BDCA221B4B1A6053221A60194A1C3A2C
:103B5000126822F48022174B1C3B1A601A46126826
:103B600040EA01031A43134B1C3B1A60FF22114B1E
:103B70001A6070470F481C38006800F480207047B6
:103B8000CA220C4B1A6053221A600A4A1C3A126865
:103B900022F4E002074B1C3B1A601A46126840EA06
:103BA00001031A43034B1C3B1A60FF22014B1A60AE
:103BB00070470000242800403FFFFF0070B5044616
:103BC0000D460026CA20F649086053200860FFF71A
:103BD000E7FB00B907E044EA0500F1490C39086049
:103BE000FFF76EFC0126FF20ED490860304670BDEE
:103BF00030B504460025CA20E94908605320086012
:103C0000FFF7CEFB00B914E044B1E5481C3800686A
:103C100040F08000E2491C39086007E0E0481C38A9
:103C2000006820F08000DE491C390860FFF748FC7E
:103C30000125FF20DA490860284630BDCA21D84A4C
:103C400011605321116040B1D5491C39096841F414
:103C50000001D34A1C3A116007E0D1491C390968B8
:103C600021F40001CE4A1C3A1160FF21CC4A1160B8
:103C70007047CA21CA4A116053211160C8491C39D2
:103C8000096821F40021C64A1C3A116011460968EE
:103C900001431160FF21C24A1160704770B50346AD
:103CA00000200024CA25BE4E356053253560BC4D2A
:103CB000183D2D6815F4803F0AD000E0641CB84D13
:103CC000183D2D6815F4803F02D0B4F5003FF5D1C2
:103CD000B34D183D2D6815F4803F07D143EA010527
:103CE0001543AF4E18363560012000E00020FF2557
:103CF000AB4E356070BD10B50A460021A84B1C3B89
:103D00001B6840F6080423EA04011AB140F400637A
:103D1000194300E00143CA23A14C236053232360CD
:103D20009F4B1C3B1960FF23236010BD2DE9F04120
:103D300080460C4615460026002799480C3000683E
:103D4000984900EA0106964810300068964900EA52
:103D50000107C6F305402070C6F30620607006F028
:103D60007F00A07006F48000000CE0700020E87076
:103D7000C7F30420687007F03F00A870C7F3423013
:103D80002870B8F1000F17D12078FFF732FC2070AF
:103D90006078FFF72EFC6070A078FFF72AFCA07017
:103DA0006878FFF726FC6870A878FFF722FCA870F7
:103DB0002878FFF71EFC2870BDE8F08178481430A1
:103DC0000068704741B9764A1C32126822EA400204
:103DD000734B1C331A6007E0714A1C32126842EAC6
:103DE00040026F4B1C331A60704739B16C4A1C3269
:103DF000126802436A4B1C331A6006E0684A1C32A0
:103E000012688243664B1C331A60704764491C3148
:103E1000096821F4C051624A1C32116011460968D8
:103E20000143116070475E491C31096821F4E0616B
:103E30005B4A1C32116011460968014311607047EA
:103E400057491C31096821F4C041554A1C321160A0
:103E50001146096801431160704740B150491C3157
:103E6000096841F080014E4A1C32116007E04C495C
:103E70001C31096821F08001494A1C3211607047E9
:103E800040B147491C31096821F40041444A1C32C1
:103E9000116007E042491C31096841F40041404A81
:103EA0001C321160704708B5002200923C4A2C3247
:103EB0000092009A02EB80020092009A116008BD05
:103EC00008B501460020009035482C30009000983D
:103ED00000EB810000900098006808BD30491C315B
:103EE000096821F480312E4A1C321160114609689C
:103EF0000143116070472A491C31096821F40031DF
:103F0000274A1C321160114609680143116070474D
:103F100023491C31096821F48021214A1C32116097
:103F200011460968014311607047F0B504460D461B
:103F300000270026CA201A49086053200860184844
:103F40001838006810F0080F0AD000E0761C1448FA
:103F50001838006810F0080F02D0B6F5805FF5D170
:103F60000F481838006810F0080F13D10C481C389F
:103F7000006810F0100F0BD145EA04000849083121
:103F80000860FFF7DFF908B9002704E0012702E025
:103F9000002700E00027FF20014908603846F0BDF7
:103FA000242800407F7F7F003FFFFF00CA223D4B57
:103FB0001A6053221A6091B13A4A1C3A126820F0F2
:103FC00004031A43374B1C3B1A60364A1C321268F2
:103FD00000F004031A43334B1C331A6011E0314ADA
:103FE0001C3A126820F004039A432E4B1C3B1A60C3
:103FF0002C4A1C32126800F004039A43294B1C33EC
:104000001A60FF22274B1A60704710B50146002046
:104010000022244B183B1B68234C03EA04020A428B
:1040200001D0012000E0002010BD81B241F08001EC
:104030001C4A183A126802F0800262EA0101194A29
:10404000183A1160704730B5014600200022002365
:10405000144C1C34246804F00402124C1C3C2468E8
:104060000C4002EAD13544EA05030E4C183C2468A2
:1040700004EA111223B11404240C01D0012000E041
:10408000002030BD002101098AB242F08002054BB8
:10409000183B1B6803F0800363EA0202014B183BE4
:1040A0001A607047242800407F3F010010B5044685
:1040B000FE48844208D101210846FFF74EF800214E
:1040C0000120FFF74AF89DE0B4F1804F08D10121AB
:1040D0000846FFF731F800210120FFF72DF891E0A5
:1040E000F348844208D101210220FFF725F800217E
:1040F0000220FFF721F885E0EE48844208D1012133
:104100000420FFF719F800210420FFF715F879E0E3
:10411000E948844208D101210820FFF70DF8002169
:104120000820FFF709F86DE0E448844208D1012136
:104130001020FFF701F800211020FEF7FDFF61E0DD
:10414000DF48844208D101212020FEF7F5FF00213D
:104150002020FEF7F1FF55E0DA48844208D1012122
:104160000220FEF7FAFF00210220FEF7F6FF49E0E9
:10417000D548844209D101210804FEF7EEFF002151
:104180004FF48030FEF7E9FF3CE0D048844209D18B
:1041900001214804FEF7E1FF00214FF40030FEF753
:1041A000DCFF2FE0CA48844209D101218804FEF7D0
:1041B000D4FF00214FF48020FEF7CFFF22E0C54856
:1041C000844208D101214020FEF7B6FF00214020A3
:1041D000FEF7B2FF16E0C048844208D101218020DA
:1041E000FEF7AAFF00218020FEF7A6FF0AE0BB48E9
:1041F000844207D101218015FEF79EFF0021A01502
:10420000FEF79AFF10BD00220288A84B98420ED0FC
:10421000AC4B98420BD0B0F1804F08D0A44B9842E1
:1042200005D0A44B984202D0A34B984204D14FF63C
:104230008F731A404B881A43A04B984207D0A04B6B
:10424000984204D04FF6FF431A400B891A4302806C
:104250004B68C3620B880385944B984202D0994BFC
:10426000984201D18B7A03860123838270474FF0F5
:10427000FF314160002101800181418081727047DE
:104280000185828270470A46002101884FF68F73AC
:10429000194011430180704741627047C162704705
:1042A0000146486A70470146088D704721B102886F
:1042B00042F00202028004E002884FF6FD731A40C9
:1042C0000280704721B1028842F00402028004E0BB
:1042D00002884FF6FB731A400280704721B10288B2
:1042E00042F08002028004E002884FF67F731A4099
:1042F0000280704702884FF6F7731A4002800288E6
:104300000A430280704702884FF6FF431A4002803A
:1043100002880A430280704721B1028842F00102FC
:10432000028004E002884FF6FE731A400280704754
:1043300070B5002400220023058C4FF6FE76354030
:104340000584028C8388048B4FF68F752C40B51E34
:104350002C400D882C43751E2A408D892A434D8898
:104360002A43524DA84202D0564DA84213D14FF6CF
:10437000F7752A40CD892A434FF6FB752A408D8870
:104380002A434FF6FF652B404FF6FF552B400D8A11
:104390002B434D8A2B43838004838D6845630284BD
:1043A00070BD70B5002400220023058C4FF6EF7617
:1043B00035400584028C8388048B48F6FF752C40B9
:1043C0004FF6FF452C400D884FF6FF7606EA05258F
:1043D0002C434FF6DF752A408D8906EA05152A43DE
:1043E0004D8806EA05152A43304DA84202D0354DC6
:1043F000A8421DD14FF67F752A40CD894FF6FF7632
:1044000006EA05152A434FF6BF752A408D8806EA4D
:1044100005152A434FF6FF352B404FF2FF752B4011
:104420000D8A06EA85052B434D8A06EA85052B434E
:10443000838004838D688563028470BD70B5002419
:1044400000220023058C4FF6FF6635400584028C60
:104450008388848B4FF68F752C404FF6FC752C406B
:104460000D882C434FF6FF552A408D894FF6FF7675
:1044700006EA05252A434D8806EA05252A430B4D01
:10448000A84202D00F4DA84238D14FF2FF752A4002
:10449000CD894FF6FF7606EA05252A434FF6FF350C
:1044A0002A408D8806EA05252A4319E000000140CC
:1044B0000004004000080040000C004000100040D4
:1044C000001400400004014000400140004401404D
:1044D0000048014000180040001C0040002000403F
:1044E0004EF6FF752B404DF6FF752B400D8A06EA00
:1044F00005152B434D8A06EA05152B4383808483DB
:104500008D68C563028470BD70B50022002300244D
:10451000058C4EF6FF7635400584038C8488828BAB
:1045200048F6FF752A404FF6FF452A400D884FF6A2
:10453000FF7606EA05252A434DF6FF752B408D8947
:1045400006EA05352B434D8806EA05352B43FE4D1B
:10455000A84202D0FD4DA84208D14BF6FF752C4071
:104560000D8A4FF6FF7606EA85152C4384808283F8
:104570008D680564038470BD0021018041808180C5
:1045800081608181C18101824182704770B503469B
:10459000002000241846183001258D40ACB21D8C37
:1045A000A5431D8409B108290AD100EB6100056803
:1045B0004FF68F76354005600568154305600FE0BE
:1045C0000D1FC5F34E052844056848F6FF763540B3
:1045D000056005684FF6FF7606EA0226354305605A
:1045E00070BD4163704781637047C1637047016468
:1045F00070470A460021018B4FF68F731940114313
:10460000018370470A460021018B48F6FF73194069
:104610004FF6FF7303EA02231943018370470A46EA
:104620000021818B4FF68F731940114381837047AE
:104630000A460021818B48F6FF7319404FF6FF733D
:1046400003EA02231943818370470A460021018B44
:104650004FF6F77319401143018370470A46002152
:10466000018B4FF2FF7319404FF6FF7303EA0223E9
:104670001943018370470A460021818B4FF6F77377
:1046800019401143818370470A460021818B4FF204
:10469000FF7319404FF6FF7303EA02231943818326
:1046A00070470A460021018B4FF6FB7319401143F6
:1046B000018370470A460021018B4FF6FF331940F2
:1046C0004FF6FF7303EA02231943018370470A463A
:1046D0000021818B4FF6FB73194011438183704792
:1046E0000A460021818B4FF6FF3319404FF6FF73C6
:1046F00003EA02231943818370470A460021018B94
:104700004FF67F7319401143018370470A46002119
:10471000018BC1F30E014FF6FF7303EA0223194325
:10472000018370470A460021818B4FF67F73194041
:104730001143818370470A460021818BC1F30E012A
:104740004FF6FF7303EA02231943818370470A4639
:104750000021018C4FF6FD7319401143018470470D
:104760000A460021018C4FF6F7731940114301846A
:1047700070470A460021018C4FF6DF7319404FF64F
:10478000FF7303EA02131943018470470A460021AC
:10479000018C4FF67F7319404FF6FF7303EA021343
:1047A0001943018470470A460021018C4FF6FF53DC
:1047B00019404FF6FF7303EA02231943018470473F
:1047C0000A460021018C4FF2FF7319404FF6FF7328
:1047D00003EA02231943018470470A460021018C31
:1047E0004DF6FF7319404FF6FF7303EA0233194386
:1047F0000184704730B5002301248C40A3B2048C9F
:104800009C430484048C02FA01F5ADB22C43048469
:1048100030BD30B5002304248C40A3B2048C9C43EB
:104820000484048C02FA01F5ADB22C43048430BD3B
:10483000828B4FF2FF331A408283828B4FF6FF73D5
:1048400003EA01231A4382837047F0B50C461546EC
:10485000002100220026078C4EF6FF7C07EA0C0799
:104860000784818B028C4FF6FF7707EA043640F607
:10487000FF4739404FF6FF7707EA052739434FF6E0
:10488000FF7707EA0337394345F6FF773A4046F4A6
:1048900080573A4381830284F0BD828B4FF6F373D5
:1048A0001A408283828B0A4382837047F0B50C469C
:1048B0001546002100220026078C4FF6FF6C07EA00
:1048C0000C070784818B028C4FF6FF7707EA0426DA
:1048D0004FF60C7739404FF6FF7707EA03172F435F
:1048E00039434FF2FF573A4046F480773A43818389
:1048F0000284F0BD028B4FF2FF331A400283028B19
:104900004FF6FF7303EA01231A4302837047F0B5A1
:104910000C461546002100220026078C4FF6EF7C3E
:1049200007EA0C070784018B028C4FF6FF7707EA32
:10493000041640F6FF4739404FF6FF7707EA033782
:1049400039434FF6FF7703E00000014000040140C7
:1049500007EA052739434FF65F773A4046F01007DC
:104960003A4301830284F0BD028B4FF6F3731A4081
:104970000283028B0A4302837047F0B50C4615464A
:1049800000210022068C4FF6FE773E400684018B04
:10499000028C4FF60C7631407E1C06EA03162E433D
:1049A00031434FF6F576324044F00106324301833D
:1049B0000284F0BD70B505460C46208850B92389A5
:1049C000A28861882846FFF7D8FFE1882846FFF7CC
:1049D000CBFF25E0208804280AD12389A28861889A
:1049E0002846FFF794FFE1882846FFF783FF17E08A
:1049F000208808280AD12389A28861882846FFF7E1
:104A000055FFE1882846FFF748FF09E02389A2887F
:104A100061882846FFF719FFE1882846FFF708FF5D
:104A200070BD002101804180012181800021C18071
:104A3000018170472DE9F04105460C46002601270B
:104A4000608808B9022600E00026A088012801D16C
:104A5000022700E001272088A0B92389A288618865
:104A60002846FFF78AFFE1882846FFF77DFF238964
:104A70003A4631462846FFF74AFFE1882846FFF7C5
:104A800039FF13E02389A28861882846FFF73FFF9A
:104A9000E1882846FFF72EFF23893A46314628460B
:104AA000FFF76BFFE1882846FFF75EFFBDE8F08166
:104AB0000146486B70470146886B70470146C86BDA
:104AC00070470146086C70470A884B881A438B88E8
:104AD0001A43CB881A430B891A434B891A438B8993
:104AE0001A43A0F844207047002101804180818052
:104AF000C180018141818181704731B1B0F844208A
:104B000042F40042A0F8442005E0B0F84420C2F38B
:104B10000E02A0F84420704721B1828842F00402BE
:104B2000828004E082884FF6FB731A4082807047CF
:104B300021B1828842F00102828004E082884FF62F
:104B4000FE731A40828070471AB183890B438381B8
:104B500002E083898B4383817047818270470246DC
:104B60000020138A0B4201D0012000E00020704792
:104B7000CA430282704730B5024600200023002459
:104B8000158A05EA0103958905EA010413B10CB100
:104B9000012000E0002030BDCA430282704741EA94
:104BA0000203A0F8483070471AB183890B43838110
:104BB00002E083898B438381704721B1828842F070
:104BC0000802828004E082884FF6F7731A408280E0
:104BD000704701894FF6F8721140018170470A460B
:104BE000002101894FF68F731940114301817047ED
:104BF00030B504460D4629462046FFF7F0FF2089D0
:104C000040F00700208130BD2DE9F04104460D46FB
:104C100016461F46602D06D13B46012231462046EE
:104C2000FFF775FE05E03B46012231462046FFF7BF
:104C3000A4FE29462046FFF7D2FF208940F0070056
:104C40002081BDE8F08130B50C4600210189C9B250
:104C50004FF6FF7505EA03251543254329430181D6
:104C600030BD2DE9F04105460E4617469846002412
:104C700043463A4631462846FFF7E5FF2C894FF672
:104C8000F870044044F007044FF68F70044044F07D
:104C900070042C81BDE8F081F0B504460D4616463F
:104CA0001F463B46324629462046FFF7CCFF208967
:104CB00040F480402081F0BD82884FF68F731A4007
:104CC000828082880A438280704702894FF6F87397
:104CD0001A40028102890A430281704702894FF615
:104CE0007F731A40028102890A4302817047F0B53E
:104CF0000C4615461E460021002200230189028B26
:104D0000038C4FF6F877394021434FF6FC473A4081
:104D100040F201173A434FF6DD773B404FF6FF77FD
:104D200007EA06172F433B43018102830384F0BD4A
:104D300021B1828842F08002828004E082884FF6AE
:104D40007F731A4082807047A0F8501070470000AF
:104D500010B50446FA48844208D101211020FEF71C
:104D6000FCF900211020FEF7F8F957E0F5488442DD
:104D700009D101214804FEF7DFF900214FF400308A
:104D8000FEF7DAF94AE0F048844209D101218804AB
:104D9000FEF7D2F900214FF48020FEF7CDF93DE077
:104DA000EA48844209D10121C804FEF7C5F900216F
:104DB0004FF40020FEF7C0F930E0E548844209D105
:104DC00001210805FEF7B8F900214FF48010FEF725
:104DD000B3F923E0DF48844208D101212020FEF707
:104DE000BCF900212020FEF7B8F917E0DA48844228
:104DF00009D101218807FEF79FF900214FF080407B
:104E0000FEF79AF90AE0D548844207D1012140050E
:104E1000FEF792F900216005FEF78EF910BD2DE92D
:104E2000FF4705460E460024A14600BFA046B089B4
:104E300000B100BF2C8A24F44054F08804432C8233
:104E4000AC8941F20C608443B08831890843718990
:104E500008430443AC81AC8A24F44074B089044311
:104E6000AC826846FDF7F9FFB548854202D0B948E3
:104E7000854202D1DDF80C9001E0DDF80890A889A8
:104E800010F4004F08D009EBC90000EB091031689D
:104E90004900B0FBF1F707E009EBC90000EB09108E
:104EA00031688900B0FBF1F76420B7FBF0F0040132
:104EB0002009642101FB1078A88910F4004F08D064
:104EC000322000EBC800B0FBF1F000F00700044313
:104ED00008E0322000EB08106421B0FBF1F000F094
:104EE0000F0004432C81BDE8FF874FF41651016089
:104EF00000218180C18001810C21418100218181BB
:104F0000704710B502460020108A20F470600B88AC
:104F10004C8823438C882343CC8823431843108236
:104F200010BD0021018041808180C180704721B186
:104F3000828942F40052828104E082894DF6FF7337
:104F40001A4082817047028B02F47F420283028BF7
:104F50000A430283704721B1828942F40042828170
:104F600003E08289C2F30E028281704721B1828AF6
:104F700042F40062828204E0828A4FF2FF731A4098
:104F800082827047C1F30802828070470146888898
:104F9000C0F308007047028A4FF6F0731A4002828D
:104FA000028A0A430282704721B1828942F00202DA
:104FB000828104E082894FF6FD731A408281704736
:104FC00082894FF2FF731A40828182890A4382816B
:104FD0007047028A4FF6DF731A400282028A0A4340
:104FE0000282704721B1028A42F48042028204E0C8
:104FF000028A4BF6FF731A4002827047818941F0A2
:1050000001018181704721B1828A42F008028282C7
:1050100004E0828A4FF6F7731A4082827047028B4F
:10502000D2B20283028B42EA01220283704721B18D
:10503000828A42F02002828204E0828A4FF6DF7385
:105040001A408282704721B1828A42F01002828225
:1050500004E0828A4FF6EF731A4082827047828A98
:105060004FF6FB731A408282828A0A43828270471B
:1050700021B1828A42F00202828204E0828A4FF6E3
:10508000FD731A40828270471AB1838A0B43838270
:1050900002E0838A8B4383827047F0B50346002485
:1050A000002600250020A1F510676A3F00D100BF4F
:1050B0001846C1F3421401F01F06012707FA06F54E
:1050C000012C01D10C3004E0022C01D1103000E0A1
:1050D00014301AB107682F43076002E00768AF4336
:1050E0000760F0BD02460020B1F5007F00D100BF8F
:1050F00013880B4201D0012000E00020704701F42A
:105100000072B2F5007F00D100BFCA430280704731
:1051100070B502460024002300250020A1F510668A
:105120006A3E00D100BFC1F3421501F01F03012602
:1051300006FA03F3012D13D19689334017E00000DE
:10514000001001400044004000480040004C004076
:10515000005000400014014000780040007C0040F6
:10516000022D02D1168A334001E0968A33400C1298
:10517000012606FA04F41688344013B10CB101205C
:1051800000E0002070BD10B500220023A1F51064DE
:105190006A3C00D100BF0A1201249440A3B2DC4350
:1051A000048010BD10B504466FF00400FBF73FFD0E
:1051B000E11704EB5171C910384A1170104600789C
:1051C00000EB4001C1EBC0104FF6FF7101EAC000D7
:1051D0003349088010BD0146304A12784A434FF0E7
:1051E000E0235A6100229A611A46126942F00102D4
:1051F0001A6100BF4FF0E022106910F0010F02D0D9
:1052000010F4803FF6D04FF0E022126922F0010244
:105210004FF0E0231A6100229A6170470146204A4C
:1052200012884A434FF0E0235A6100229A611A46DD
:10523000126942F001021A6100BF4FF0E0221069CA
:1052400010F0010F02D010F4803FF6D04FF0E022B2
:10525000126922F001024FF0E0231A6100229A61E4
:10526000704770B504464FF4077094FBF0F0C6B277
:105270004FF4077094FBF0F100FB114085B205E09C
:105280004FF40770FFF7CAFF701EC6B2002EF7D1A9
:1052900015B12846FFF7C2FF70BD000028000020AE
:1052A0002A000020014600BF704700BF4B4A128809
:1052B00012F0400FFAD0C2B2484B9A80704710B536
:1052C00088B0044601210846FDF798FE0121102010
:1052D000FDF7EEFE072209214148FDF7C4FB072236
:1052E0000A213F48FDF7BFFB4FF4C0600690022043
:1052F0008DF81C008DF81D0000208DF81E00012087
:105300008DF81F0006A93648FDF722FB0294002005
:10531000ADF80C00ADF80E00ADF81000ADF81400BB
:105320000C20ADF8120002A92C48FFF778FD0121EE
:105330002A48FFF7FCFD012240F225512748FFF7DC
:10534000ACFE25208DF8040003208DF805008DF8B3
:10535000060001208DF8070001A8FBF71AFC08B031
:1053600010BD10B540F225511C48FFF7D1FE10B317
:105370001A48FFF70BFEC4B21A48008810F4004F19
:105380002BD11848008810F4804F0CD00A2C03D081
:1053900000201449088020E01248008840F40040B2
:1053A0001049088019E00D2C06D10E48008840F401
:1053B00080400C49088010E00A480088C0F30D00C6
:1053C00009490C5407480088401C064908800846D3
:1053D0000088C72801DD0020088010BD00100140B2
:1053E000000002402C000020A40000201CB5012178
:1053F0002020FDF703FE4FF4C060009001208DF8DF
:10540000040000208DF8060003208DF8050001201F
:105410008DF8070069460448FDF79AFA4FF4C06119
:105420000148FDF711FB1CBD001402401CB5012111
:105430002020FDF7E3FD4FF48070009001208DF8EF
:10544000040000208DF8060003208DF805000220DE
:105450008DF8070069460448FDF77AFA4FF4807129
:105460000148FDF7F3FA1CBD001402401CB50121F0
:105470001120FDF7C3FD1C20009000208DF80400D2
:1054800003208DF8050001208DF807006946354896
:10549000FDF75EFA0120009002208DF807006946B2
:1054A0003148FDF755FA1CBD10B5044614B1012072
:1054B0002E4908702D480078002837D0102129483F
:1054C000FDF7A8FA78B108212648FDF7A3FA50B1F4
:1054D00004212448FDF79EFA28B101212248FDF756
:1054E00099FA012822D10A20FFF7BBFE00201F49AC
:1054F000087010211B48FDF78DFA08B9012010BD76
:1055000008211848FDF786FA08B90220F7E70421B8
:105510001448FDF77FFA08B90320F0E7012112488B
:10552000FDF778FA01281BD10420E8E710210D4887
:10553000FDF770FA012813D108210A48FDF76AFA2D
:1055400001280DD104210748FDF764FA012807D18D
:1055500001210548FDF75EFA10B9012003490870E2
:105560000020CCE700100240000002403400002080
:1055700001B5BDF800000090BDF80000F7490880B3
:1055800008BD01B5BDF800000090BDF80000F44969
:10559000088008BD08B5F24800880090BDF80000FA
:1055A00008BDEE4A10804FF0D842A2F88010704734
:1055B00010B504462046FFF7DBFF0520FFF70BFE82
:1055C000FFF7E8FF10BDE7480089E449088070470D
:1055D000E3490880704730B5014601F01F04C1F36C
:1055E0004513CA0AE50205EB43151544A8B230BDC0
:1055F00000BF0100A0F10102D0B2FAD1704730B56E
:1056000004460D46D7488088A0F51341413905D09E
:10561000D4488088A0F5A641103914D1D1494889D1
:10562000FFF7A6FF2012FFF7ACFFE0B2FFF7A9FFDC
:10563000CC498889FFF79CFF2812FFF7A2FFE8B248
:10564000FFF79FFFABE0C7488088A0F5D041043941
:105650001DD1C4488079012804D1C2480088401E69
:10566000001B84B2BF494889FFF782FF2012FFF771
:1056700088FFE0B2FFF785FFBA498889FFF778FF16
:105680002812FFF77EFFE8B2FFF77BFF87E0B548FF
:105690008088A0F5C851633947D1B2488079A8B94C
:1056A000B0480088401E001B84B2AE494889FFF70D
:1056B0005FFF0020FFF765FF0020FFF762FF201269
:1056C000FFF75FFFE0B2FFF75CFF16E0A5494889EE
:1056D000FFF74EFF2012FFF754FFE0B2FFF751FF34
:1056E000A0490988491EC1F30F20FFF74AFF9D49D1
:1056F0000978491EC8B2FFF744FF9A498889FFF725
:1057000037FF2812FFF73DFFE8B2FFF73AFF954950
:105710004988491EC1F30F20FFF733FF914989786B
:10572000491EC8B2FFF72DFF39E08E488088A0F5EA
:10573000AA41103920D18B494889FFF719FF20125F
:10574000FFF71FFF87494989491C88B2FFF710FFFF
:10575000E0B2FFF716FF83498889FFF709FF281297
:10576000FFF70FFF7F498989491C88B2FFF700FFC7
:10577000E8B2FFF706FF12E07A488079012804D1E9
:1057800078480088401E001B84B27649488921462B
:10579000FFF707FF734988892946FFF702FF30BDED
:1057A0002DE9F04105460E4600240027A0466D482D
:1057B0000088A84203DD6B484088B04202DC00202C
:1057C000BDE8F08131462846FFF719FF654880881B
:1057D000A0F51341413911D062488088A0F5D0412D
:1057E00004390BD05F488088A0F5A641103905D058
:1057F0005C488088A0F5C851633903D12E20FFF79B
:10580000B7FE0DE057488088A0F5AA41103904D1B1
:105810004FF43850FFF7ACFE02E02220FFF7A8FE5D
:1058200050488088A0F51341203902D10220FFF7AB
:10583000DFFEFFF7AFFE04464A488088A0F5C85156
:10584000633901D12046BBE70220FFF7D1FEFFF705
:10585000A1FE044643488088A0F5134141390BD08E
:1058600040488088A0F5A641103905D03D48808881
:10587000A0F5AA4110390AD10220FFF7B9FEFFF7BF
:1058800089FE8046E7B24FF6FF7000EA07273548E9
:105890008088A0F51341253917D032488088A0F5BB
:1058A0008A41353911D02F488088A0F58A41313995
:1058B0000BD02C488088A0F53541053905D0294802
:1058C0008088A0F54541053901D1204678E7254873
:1058D0008088A0F5134141390BD022488088A0F57B
:1058E000A641103905D01F488088A0F5AA4110397B
:1058F00007D1E012C002B91240EA411040EAE820A4
:105900005EE72046FFF767FE5AE700B51548808836
:10591000A0F51341413911D012488088A0F5D0413B
:1059200004390BD00F488088A0F5A641103905D066
:105930000C488088A0F5C851633903D12920FFF7AE
:1059400017FE16E007488088A0F5AA4110390BD150
:105950004FF42450FFF70CFE0BE000007E00006CBB
:105960008000006C6C01002040F273110720FFF7EB
:1059700018FE00BD00B5FD488088A0F513414139EF
:1059800011D0FA488088A0F5D04104390BD0F748EF
:105990008088A0F5A641103905D0F4488088A0F58C
:1059A000C851633903D12820FFF7E2FD0EE0EF482C
:1059B0008088A0F5AA41103904D14FF42050FFF798
:1059C000D7FD03E000210720FFF7EBFD00BDF0B598
:1059D000054600240027E548807901280BD1E348DB
:1059E0008088A0F5D041043905D0E0488088A0F532
:1059F000C851633908D1DD488079F0B9DB48808827
:105A0000A0F5C851633918D1082D15D2DFE805F08B
:105A10000406080A0C0E101206250DE007250BE0FF
:105A2000042509E0052507E0012505E0002503E040
:105A3000032501E0022500BF00BFCC488088A0F507
:105A40001341413917D0C9488088A0F5D0410439A5
:105A500011D0C6488088A0F5A64110390BD0C348A4
:105A60008088A0F5AA41103905D0C0488088A0F5EB
:105A7000C85163397ED1082D1CD2DFE805F0040639
:105A8000090C0F12151800BF14E044F0800411E057
:105A900044F040040EE044F0C0040BE044F0200465
:105AA00008E044F0600405E044F0A00402E044F0A3
:105AB000E00400BF00BFAD488088A0F5AA411039BE
:105AC00002D14FF4585700E03627A8488088A0F547
:105AD000A64110390DD0A5488088A0F5AA411039FB
